:100000000C943C000C94F0150C94F0150C94F01525
:100010000C94F0150C94F0150C94F0150C94F0154C
:100020000C94F0150C94F0150C94F0150C944811E8
:100030000C94F0150C94F0150C94F0150C94F0152C
:100040000C9433120C94F0150C94F0150C94F015DC
:100050000C94F0150060006480006401B4002BFE75
:1000600001B401B68001B601B8002D4E01B801B946
:100070008001B901BA002D5011241FBECFE5D8E090
:10008000DEBFCDBFE4E5F0E040E017C0B591A5913B
:1000900035912591059107FD0CC095918591EF0152
:1000A000F92FE82F05900D92A217B307D9F7FE019B
:1000B00004C01D92A217B307E1F7E837F40731F740
:0C00C0000E9423090C947615F894FFCFE1
:1000CC00656E7465722061646D696E207061737306
:1000DC002A000000000000000000000000000000EA
:1000EC000000000000000000000000000000000004
:1000FC000000757365722069732061646465642AFD
:10010C0000000000000000000000000000000000E3
:10011C0000000000000000000000000000000000D3
:10012C0000000000656E7465722075736572207036
:10013C006173732A00000000000000000000000042
:10014C0000000000000000000000000000000000A3
:10015C000000000000006F70656E20736572766F92
:10016C002A00000000000000000000000000000059
:10017C000000000000000000000000000000000073
:10018C000000000000000000636C6F736520736555
:10019C0072766F2A000000000000000000000000D2
:1001AC000000000000000000000000000000000043
:1001BC0000000000000000000000637265617465BF
:1001CC00206E657720757365722A000000000000B0
:1001DC000000000000000000000000000000000013
:1001EC000000000000000000000000006C6564319D
:1001FC00206F6E2A000000000000000000000000CC
:10020C0000000000000000000000000000000000E2
:10021C0000000000000000000000000000006C6501
:10022C006431206F66662A000000000000000000A8
:10023C0000000000000000000000000000000000B2
:10024C0000000000000000000000000000000000A2
:10025C006C656432206F6E2A000000000000000004
:10026C000000000000000000000000000000000082
:10027C000000000000000000000000000000000072
:10028C0000006C656432206F66662A000000000076
:10029C000000000000000000000000000000000052
:1002AC000000000000000000000000000000000042
:1002BC00000000006C656433206F6E2A00000000A3
:1002CC000000000000000000000000000000000022
:1002DC000000000000000000000000000000000012
:1002EC000000000000006C656433206F66662A0015
:1002FC0000000000000000000000000000000000F2
:10030C0000000000000000000000000000000000E1
:10031C0000000000000000006C656434206F6E2A41
:10032C0000000000000000000000000000000000C1
:10033C0000000000000000000000000000000000B1
:10034C00000000000000000000006C656434206FA9
:10035C0066662A000000000000000000000000009B
:10036C000000000000000000000000000000000081
:10037C000000000000000000000000006C65643507
:10038C00206F6E2A0000000000000000000000003A
:10039C000000000000000000000000000000000051
:1003AC0000000000000000000000000000006C6570
:1003BC006435206F66662A00000000000000000013
:1003CC000000000000000000000000000000000021
:1003DC000000000000000000000000000000000011
:1003EC0072756E206D6F746F722A00000000000031
:1003FC0000000000000000000000000000000000F1
:10040C0000000000000000000000000000000000E0
:10041C00000073746F70206D6F746F722A0000008F
:10042C0000000000000000000000000000000000C0
:10043C0000000000000000000000000000000000B0
:10044C0000000000736572766F206973206F706511
:10045C006E65642A0000000000000000000000002F
:10046C000000000000000000000000000000000080
:10047C00000000000000736572766F2069732063C2
:10048C006C6F7365642A000000000000000000001F
:10049C000000000000000000000000000000000050
:1004AC0000000000000000006D6F746F7220727508
:1004BC006E6E696E672A00000000000000000000EC
:1004CC000000000000000000000000000000000020
:1004DC00000000000000000000006D6F746F7220BF
:1004EC0073746F702A000000000000000000000010
:1004FC0000000000000000000000000000000000F0
:0C050C00000000000000000000000000E3
:10051800656E7465722075736572200077726F6EF0
:10052800672070617373776F726400506C656173D4
:100538006520526573657420546865005379737437
:10054800656D0041646D696E20207061737300638E
:100558006F72726563740070617373776F72640091
:1005680041646D696E207573696E670055736572B5
:10057800207573696E67005072657373202F20743D
:100588006F206C6F67696E005072657373202D2041
:1005980034206B6579706164005072657373204F05
:1005A8002F4320322045786974004E6F20557365BB
:1005B8007220466F756E64004E6F205065726D69CB
:1005C8007373696F6E00506173732052657175693A
:0405D80072656400E4
:1005DC00CF93DF930E94D2158AE491E00E94FC1421
:1005EC002FEF32E587E0215030408040E1F700C02A
:1005FC0000000E94D21580E391E00E94FC14EFED04
:10060C00FEE23197F1F700C0000060E081E00E944B
:10061C0038158FED9EE20197F1F700C0000082E2E1
:10062C0091E00E94FC149FEFE9E6F8E19150E04064
:10063C00F040E1F700C000000E94330E9091B90128
:10064C00891300C302C32FEF39EF80E021503040F3
:10065C008040E1F700C000000E94330E813301F5A9
:10066C0062E082E00E94DC11882369F09FEFE8E5EC
:10067C00F6E09150E040F040E1F700C0000082E06D
:10068C000E94FF0F30C02FEF38E586E0215030403C
:10069C008040E1F700C0000082E00E94AD0B23C057
:1006AC000E94330E8233F9F463E082E00E94DC1185
:1006BC00882369F09FEFE8E5F6E09150E040F040C8
:1006CC00E1F700C0000083E00E94FF0F0CC02FEF89
:1006DC0038E586E0215030408040E1F700C0000052
:1006EC0083E00E94AD0B1092B8010E94330E803350
:1006FC0009F0A9CF0E94D215EFEDFEE23197F1F788
:10070C0000C0000084E191E00E94FC148FED9EE299
:10071C000197F1F700C0000060E081E00E943815FD
:10072C00EFEDFEE23197F1F700C0000086E091E0BA
:10073C000E94FC14FFEF23EC39E0F15020403040D4
:10074C00E1F700C0000050C08FEF99EFE0E081505E
:10075C009040E040E1F700C000000E94330E83336C
:10076C0001F564E082E00E94DC11882369F0FFEF60
:10077C0028E536E0F15020403040E1F700C00000A1
:10078C0084E00E94FF0F30C08FEF98E5E6E08150C7
:10079C009040E040E1F700C0000084E00E94AD0B07
:1007AC0023C00E94330E8433F9F466E083E00E9488
:1007BC00DC11882369F0FFEF28E536E0F15020408A
:1007CC003040E1F700C0000086E00E94FF0F0CC033
:1007DC008FEF98E5E6E081509040E040E1F700C0F3
:1007EC00000086E00E94AD0B0E94330E803309F0AE
:1007FC00ABCF0E94D2158FED9EE20197F1F700C0AE
:10080C00000088EF90E00E94FC14EFEDFEE23197BF
:10081C00F1F700C0000060E081E00E9438158FED18
:10082C009EE20197F1F700C0000089EE90E00E9473
:10083C00FC149FEFE3ECF9E09150E040F040E1F75D
:10084C0000C000004EC02FEF39EF80E02150304047
:10085C008040E1F700C000000E94330E853301F5A3
:10086C0065E083E00E94DC11882369F09FEFE8E5E6
:10087C00F6E09150E040F040E1F700C0000085E068
:10088C000E94FF0F2EC02FEF38E586E0215030403C
:10089C008040E1F700C0000085E00E94AD0B21C054
:1008AC000E94330E8633E9F462E080E00E94DC1192
:1008BC00882361F09FEFE8E5F6E09150E040F040CE
:1008CC00E1F700C000000E9446150BC02FEF38E581
:1008DC0086E0215030408040E1F700C000000E94CB
:1008EC0081150E94330E803309F0ADCF0E94D215D2
:1008FC00EFEDFEE23197F1F700C000008AED90E0D9
:10090C000E94FC148FED9EE20197F1F700C00000ED
:10091C0060E081E00E943815EFEDFEE23197F1F7CF
:10092C0000C0000086E591E00E94FC14FFEF23EC70
:10093C0039E0F15020403040E1F700C00000A5C084
:10094C008FEF99EFE0E081509040E040E1F700C07C
:10095C0000000E94330E8733F1F467E083E00E94BD
:10096C00DC11882361F0FFEF28E536E0F1502040E0
:10097C003040E1F700C000000E94EA1586C08FEFFE
:10098C0098E5E6E081509040E040E1F700C00000BF
:10099C000E94F8157AC00E94330E883309F075C096
:1009AC00FFEF23EC39E0F15020403040E1F700C07C
:1009BC0000000E94D21584E690E00E94FC148FED9A
:1009CC009EE20197F1F700C0000060E081E00E9418
:1009DC0038158AEC90E00E94FC149FEFE9E6F8E1F0
:1009EC009150E040F040E1F700C000000E94D215A9
:1009FC008FE19EE40197F1F700C0000081E00E94B6
:100A0C0099150E94F4150E94C915EFEDFEE231977D
:100A1C00F1F700C000000E945B14FFEF25EA3EE0F6
:100A2C00F15020403040E1F700C000000E94D21588
:100A3C000E94330E8B32D1F60E94D2158FED9EE2BE
:100A4C000197F1F700C0000088E790E00E94FC14C9
:100A5C00EFE1FEE43197F1F700C0000060E081E0C7
:100A6C000E9438158FED9EE20197F1F700C000004F
:100A7C008AEB90E00E94FC149FEFE5EAFEE09150B7
:100A8C00E040F040E1F700C000000E94330E8033DC
:100A9C0009F056CF0E94D2158FED9EE20197F1F727
:100AAC0000C0000089E890E00E94FC14EFE1FEE435
:100ABC003197F1F700C0000060E081E00E9438152A
:100ACC008FED9EE20197F1F700C000008EE391E0FC
:100ADC000E94FC149FEFE3ECF9E09150E040F040F1
:100AEC00E1F700C00000C8E8D3E19BC00E94330EC0
:100AFC00893309F096C00E94D2158FED9EE20197C2
:100B0C00F1F700C0000082E691E00E94FC14EFE1D6
:100B1C00FEE43197F1F700C0000060E081E00E9434
:100B2C0038158FED9EE20197F1F700C000008AEABC
:100B3C0091E00E94FC149FEFE4E3FCE09150E04054
:100B4C00F040E1F700C000000E94D21580E00E9446
:100B5C0099150E94F4150E94C9159C012C9FC00187
:100B6C002D9F900D3C9F900D1124992314F48150CE
:100B7C009C4FBC01672F770F770B65956595072EFA
:100B8C00000C880B990B0E94880F20E030E04AE79C
:100B9C0054E40E94E2150E94A715CB010E945B143D
:100BAC008FED9EE20197F1F700C0000086EB91E01B
:100BBC000E94FC149FEFE9E6F8E19150E040F04010
:100BCC00E1F700C000000E94330E8B3209F0BCCF5D
:100BDC000E94D2158FED9EE20197F1F700C0000044
:100BEC0088E790E00E94FC14EFE1FEE43197F1F706
:100BFC0000C0000060E081E00E9438158FED9EE29D
:100C0C000197F1F700C000008AEA90E00E94FC1402
:100C1C009FEFE5EAFEE09150E040F040E1F700C0C4
:100C2C0000000E94330E803309F060CF0E94D21571
:100C3C002FEF33EC89E0215030408040E1F700C0C9
:100C4C00000003C0813409F050CDDF91CF9108959D
:100C5C00CF92DF92EF920F931F93CF93DF93CDB789
:100C6C00DEB7C85ED3400FB6F894DEBF0FBECDBF63
:100C7C0060E081E00E94E01022E631E040E08CE090
:100C8C00F901DE011196742F0E94531546E2FE0104
:100C9C003D96DF01842F1D928A95E9F70F2EF4E91A
:100CAC00CF2EF1E0DF2EF0E0EF2EF02D8DE0F601EF
:100CBC00DE01D3967E2D0E945315FE01E05CFF4FA2
:100CCC0085E2DF011D928A95E9F70F2EF6ECCF2E07
:100CDC00F1E0DF2EF0E0EF2EF02D81E1F601DE01E8
:100CEC00AB59BF4F7E2D0E94531561E2E5E6F0E053
:100CFC00EC0FFD1F7196DF01862F1D928A95E9F787
:100D0C000F2EF8EFCF2EF1E0DF2EF0E0EF2EF02DCE
:100D1C0089E0F601DE01A956BF4F7E2D0E945315C6
:100D2C0039E2E7E9F0E0EC0FFD1F3996DF01832F84
:100D3C001D928A95E9F70F2EFAE2CF2EF2E0DF2E04
:100D4C00F0E0EF2EF02D8AE0F601DE01A753BF4F45
:100D5C007E2D0E94531528E2E9ECF0E0EC0FFD1F0C
:100D6C003A96DF01822F1D928A95E9F70F2EFCE54A
:100D7C00CF2EF2E0DF2EF0E0EF2EF02D89E0F60121
:100D8C00DE01A550BF4F7E2D0E945315EBEFF0E016
:100D9C00EC0FFD1F3996DF01832F1D928A95E9F721
:100DAC000F2EFEE8CF2EF2E0DF2EF0E0EF2EF02D2E
:100DBC008AE0F601DE01A35DBE4F7E2D0E94531525
:100DCC00EDE2F1E0EC0FFD1F3A96DF01822F1D9250
:100DDC008A95E9F70F2EF0ECCF2EF2E0DF2EF0E043
:100DEC00EF2EF02D89E0F601DE01A15ABE4F7E2DCB
:100DFC000E945315EFE5F1E0EC0FFD1F3996DF0172
:100E0C00832F1D928A95E9F70F2EF2EFCF2EF2E089
:100E1C00DF2EF0E0EF2EF02D8AE0F601DE01AF566A
:100E2C00BE4F7E2D0E945315E1E9F1E0EC0FFD1F42
:100E3C003A96DF01822F1D928A95E9F70F2EF4E284
:100E4C00CF2EF3E0DF2EF0E0EF2EF02D89E0F6014F
:100E5C00DE01AD53BE4F7E2D0E945315E3ECF1E045
:100E6C00EC0FFD1F3996DF01832F1D928A95E9F750
:100E7C000F2EF6E5CF2EF3E0DF2EF0E0EF2EF02D67
:100E8C008AE0F601DE01AB50BE4F7E2D0E94531559
:100E9C00E5EFF1E0EC0FFD1F3A96DF01822F1D927A
:100EAC008A95E9F70F2EF8E8CF2EF3E0DF2EF0E06D
:100EBC00EF2EF02D89E0F601DE01A95DBD4F7E2DF0
:100ECC000E945315E7E2F2E0EC0FFD1F3996DF01AB
:100EDC001D923A95E9F70F2EFAEBCF2EF3E0DF2EA9
:100EEC00F0E0EF2EF02D8AE0F601DE01A75ABD4F9F
:100EFC007E2D0E945315E9E5F2E0EC0FFD1F3A96AA
:100F0C00DF011D922A95E9F70F2EFCEECF2EF3E0B0
:100F1C00DF2EF0E0EF2EF02D8BE0F601DE01A55771
:100F2C00BD4F7E2D0E945315EBE8F2E0EC0FFD1F38
:100F3C003B9687E2DF011D928A95E9F70F2EFEE1C1
:100F4C00CF2EF4E0DF2EF0E0EF2EF02D8CE0F6014A
:100F5C00DE01A354BD4F7E2D0E945315EDEBF2E044
:100F6C00EC0FFD1F3C96DF01842F1D928A95E9F74B
:100F7C000F2EF0E5CF2EF4E0DF2EF0E0EF2EF02D6B
:100F8C0081E1F601DE01A151BD4F7E2D0E9453156A
:100F9C00EFEEF2E0EC0FFD1F7196DF01862F1D9234
:100FAC008A95E9F70F2EF2E8CF2EF4E0DF2EF0E071
:100FBC00EF2EF02D81E1F601DE01AF5DBC4F7E2DF1
:100FCC000E945315E1E2F3E0EC0FFD1F7196DF0177
:100FDC001D926A95E9F70F2EF4EBCF2EF4E0DF2E7D
:100FEC00F0E0EF2EF02D8FE0F601DE01AD5ABC4F94
:100FFC007E2D0E945315E3E5F3E0EC0FFD1F3F96A9
:10100C0083E2DF011D928A95E9F70F2EF6EECF2EC3
:10101C00F4E0DF2EF0E0EF2EF02D8CE0F601DE0197
:10102C00AB57BC4F7E2D0E945315E5E8F3E0EC0F57
:10103C00FD1F3C96DF011D924A95E9F78E0109547C
:10104C001C4F0E94DE15F80181938F018A32C9F77B
:10105C008DE00E94DA15BE016F5F7F4FCE0189547F
:10106C009C4F0E94B113892B41F40E94F815CE01BC
:10107C0081519D4F0E94D11311C0BE016D5C7F4FF9
:10108C00CE0189549C4F0E94B113892B39F40E94D4
:10109C00EA15CE018F5D9C4F0E94D113BE0165579E
:1010AC007D4FCE0189549C4F0E94A112029741F4AE
:1010BC000E948115CE018D5A9C4F0E94D113AEC057
:1010CC00BE0163547D4FCE0189549C4F0E94A112E6
:1010DC00029741F40E944615CE018B579C4F0E94FB
:1010EC00D1139CC0BE016B597F4FCE0189549C4FCC
:1010FC000E94C312049739F40E94550C909361001E
:10110C00809360008BC0BE0169567F4FCE0189541D
:10111C009C4F0E94E512069721F482E00E94AD0BD1
:10112C007DC0BE0167537F4FCE0189549C4F0E94F6
:10113C00E512069721F482E00E94FF0F6FC0BE01FA
:10114C0065507F4FCE0189549C4F0E94071308971E
:10115C0021F483E00E94AD0B61C0BE01635D7E4F44
:10116C00CE0189549C4F0E940713089721F483E009
:10117C000E94FF0F53C0BE01615A7E4FCE018954AD
:10118C009C4F0E9429130A9721F484E00E94AD0B16
:10119C0045C0BE016F567E4FCE0189549C4F0E94B4
:1011AC0029130A9721F484E00E94FF0F37C0BE0177
:1011BC006D537E4FCE0189549C4F0E944B130C975C
:1011CC0021F486E00E94AD0B29C0BE016B507E4F0E
:1011DC00CE0189549C4F0E944B130C9721F486E04E
:1011EC000E94FF0F1BC0BE01695D7D4FCE0189546B
:1011FC009C4F0E946D130E9721F485E00E94AD0B5D
:10120C000DC0BE01675A7D4FCE0189549C4F0E9480
:10121C006D130E9719F485E00E94FF0FC851DC4F37
:10122C000FB6F894DEBF0FBECDBFDF91CF911F91EB
:0A123C000F91EF90DF90CF9008951E
:10124600CF93DF93CDB7DEB7C45CD1090FB6F89460
:10125600DEBF0FBECDBF62E083E00E943B1063E0BD
:1012660083E00E94E0100E948A1546E050E063E0A9
:1012760070E08FEF90E00E940B150E94C30F0E9452
:10128600AB100E947D1247E061E081E00E94861467
:1012960047E061E080E00E94861425E042E360E0DA
:1012A60080E00E94F0130E94CE1581E090E00E943B
:1012B600AB140E94991469E171E082EA0E940A1255
:1012C60083E099E00E9429152FEF89EF90E02150E5
:1012D60080409040E1F700C000006CE171E082EAD6
:1012E6000E940A1280E090E00E9429152FEF80E705
:1012F60092E0215080409040E1F700C0000028E1D4
:1013060035E040E08CE0F901DE011196742F0E9471
:10131600531524E235E040E08FE0F901DE011D9629
:10132600742F0E94531523E335E040E081E1F90173
:10133600DE015C96742F0E94531524E435E040E0EC
:1013460087E0F901DE019D96742F0E9453152BE468
:1013560035E040E08CE0F901DE01D496742F0E945E
:10136600531527E535E040E088E0F901DE01A05C91
:10137600BF4F742F0E9453152FE535E040E089E0FA
:10138600F901DE01A85BBF4F742F0E94531528E6B2
:1013960035E040E08CE0F901DE01AF5ABF4F742F13
:1013A6000E94531524E735E040E08BE0F901DE01A9
:1013B600A35ABF4F742F0E9453152FE735E040E024
:1013C60081E1F901DE01A859BF4F742F0E94531520
:1013D60020E935E040E081E1F901DE01A758BF4F81
:1013E600742F0E94531521EA35E040E081E1F901AE
:1013F600DE01A657BF4F742F0E94531522EB35E02E
:1014060040E08EE0F901DE01A556BF4F742F0E9421
:10141600531520EC35E040E08EE0F901DE01A755DA
:10142600BF4F742F0E9453152EEC35E040E08EE03E
:10143600F901DE01A954BF4F742F0E94531503E032
:1014460010E00E945E0D8330994009F02BC10E9486
:10145600D215CE01C4960E94FC148FE19EE401973A
:10146600F1F700C0000062E081E00E943815CE016D
:10147600805C9F4F0E94FC149FEF29E688E1915003
:1014860020408040E1F700C00000A12CB12C812C47
:10149600912C62E083E00E94DC11882349F00E94CF
:1014A600D215CE018F5A9F4F0E94FC140E942E0621
:1014B6000E94D2158FED9EE20197F1F700C0000061
:1014C600CE0188599F4F0E94FC148FE19EE401973C
:1014D600F1F700C0000060E081E00E943815CE01FF
:1014E60087589F4F0E94FC149FEF29E688E1915090
:1014F60020408040E1F700C000000E94D2158FED29
:101506009EE20197F1F700C000000E94330EE82E1C
:10151600F12C9FE2E916F10409F4FDC02DE2E21672
:10152600F10409F0B6CF6CE171E082EA0E940A127A
:101536006CE171E083EA0E940A128FE19EE4019752
:10154600F1F700C000000E94DD146C01892B09F040
:10155600F9C097C00E94D2158FE39CE90197F1F775
:1015660000C00000CE0101960E94FC148FE19EE4AB
:101576000197F1F700C0000060E081E00E94381595
:10158600CE01885B9F4F0E94FC149FEF29E688E1FD
:10159600915020408040E1F700C000000E94D21523
:1015A6000E94ED0E8C010E94D21592E0A916B1049C
:1015B60024F00C151D0521F09BC00C151D0581F5A9
:1015C6002DE2E216F10439F5CE01835A9F4F0E94AF
:1015D600FC148FEF93EC29E0815090402040E1F716
:1015E60000C0000018C00E94D2158FED9EE2019740
:1015F600F1F700C00000CE0186579F4F0E94FC14F1
:101606009FEF26E181E1915020408040E1F700C044
:1016160000000E94EE020E94330E813421F739CF7A
:10162600012B89F0CE010D960E94FC149FEF21EE4E
:1016360084E0915020408040E1F700C000009FEF19
:10164600A91AB90A26CFCE0187559F4F0E94FC14CE
:101656008FE19EE40197F1F700C0000060E081E0B1
:101666000E943815CE0189549F4F0E94FC149FEFAB
:1016760026E181E1915020408040E1F700C0000062
:1016860008CFCE0185569F4F0E94FC149FEF29E696
:1016960088E1915020408040E1F700C000000E94A0
:1016A600D215F7CE0E94D215CE010D960E94FC14DB
:1016B6009FEF23EC89E0915020408040E1F700C085
:1016C60000000150110909F0BCCE63E083E00E94DE
:1016D60014110E94D215CE014C960E94FC1464E0AF
:1016E60081E00E943815CE018D960E94FC14FFCF32
:1016F60063E083E00E9414110E94D215CE014C963D
:101706000E94FC1464E081E00E943815CE018D969B
:101716000E94FC14FFCF6CE171E082EA0E940A127B
:101726006CE171E083EA0E940A128FE19EE4019760
:10173600F1F700C000000E94DD146C01892B09F44A
:10174600A0CF08CF92E0A916B1040CF47CCF082DE7
:04175600192D2FCF4B
:10175A00843009F43FC028F4823061F0833011F1FB
:10176A000895863009F44EC008F464C08A3009F43A
:10177A0079C0089562E082E00E9414110E94D21595
:10178A008EE991E00E94FC148EE991E00E94D11347
:10179A002FEF89E698E1215080409040E1F700C0A0
:1017AA000000089563E082E00E9414110E94D2159D
:1017BA0082E991E00E94FC1482E991E00E94D1132F
:1017CA002FEF89E698E1215080409040E1F700C070
:1017DA000000089564E082E00E9414110E94D2156C
:1017EA0086E891E00E94FC1486E891E00E94D113F9
:1017FA002FEF89E698E1215080409040E1F700C040
:10180A000000089566E083E00E9414110E94D21538
:10181A008AE791E00E94FC148AE791E00E94D113C2
:10182A002FEF89E698E1215080409040E1F700C00F
:10183A000000089565E083E00E9414110E94D21509
:10184A008EE691E00E94FC148EE691E00E94D1138C
:10185A002FEF89E698E1215080409040E1F700C0DF
:10186A000000089562E082E00E94141163E082E0C1
:10187A000E94141164E082E00E94141166E083E081
:10188A000E94141165E083E00E9414112FEF89E68B
:10189A0098E1215080409040E1F700C0000008958F
:1018AA00CF92DF92EF92FF920F931F93CF93DF9322
:1018BA00CDB7DEB7C85CD1090FB6F894DEBF0FBE4C
:1018CA00CDBF2EEF30E040E08FE0F901DE01119646
:1018DA00742F0E945315FE01709683E2DF011D9258
:1018EA008A95E9F720E331E040E081E1F901DE0180
:1018FA00D396742F0E945315FE01EC5BFF4F81E2D1
:10190A00DF011D928A95E9F7CE01C3960E94D11391
:10191A007E01B5E6EB0EF11CC701C296F7011192E2
:10192A00E817F907E1F7670100E010E00E94DE1509
:10193A00F60181936F018A3239F48DE00E94DA153B
:10194A001016110624F013C00F5F1F4FEFCFFE01D0
:10195A00E956FF4F85E690E08C0F9D1F080F191F6F
:10196A00D7018D917D018193A017B107C9F7BE01F7
:10197A0069567F4F80E80E943E0F909363008093E0
:10198A0062006CE171E082EA0E940A1280916200B0
:10199A00909163000E942915EFE3FCE93197F1F772
:1019AA0000C00000CE0101960E94D113809162000E
:1019BA0090916300C853DF4F0FB6F894DEBF0FBE95
:1019CA00CDBFDF91CF911F910F91FF90EF90DF90E4
:0419DA00CF9008950D
:1019DE0010C00E94B51558F00E94AE1540F029F4C3
:1019EE005F3F29F00C94C31551110C94BD150C9446
:1019FE00ED150E948F1368F39923B1F3552391F3DC
:101A0E00951B550BBB27AA2762177307840738F05F
:101A1E009F5F5F4F220F331F441FAA1FA9F335D0BC
:101A2E000E2E3AF0E0E832D091505040E695001C70
:101A3E00CAF72BD0FE2F29D0660F771F881FBB1F2A
:101A4E00261737074807AB07B0E809F0BB0B802D08
:101A5E00BF01FF2793585F4F3AF09E3F510578F034
:101A6E000C94C3150C94BD155F3FE4F3983ED4F36C
:101A7E00869577956795B795F7959F5FC9F7880F08
:101A8E00911D9695879597F90895E1E0660F771F5A
:101A9E00881FBB1F621773078407BA0720F0621BEB
:0E1AAE00730B840BBA0BEE1F88F7E0950895BA
:101ABC00CF92DF92EF92FF920F931F93CF93DF930E
:101ACC00CDB7DEB7C659D1090FB6F894DEBF0FBE3D
:101ADC00CDBF2CEC30E040E082E1F901DE01119643
:101AEC00742F0E945315FE01739680E2DF011D9244
:101AFC008A95E9F7CE0101960E94D1137E01B3E3DA
:101B0C00EB0EF11CC701C296F7011192E817F90709
:101B1C00E1F7670100E010E00E94DE15F601819309
:101B2C006F018A3239F48DE00E94DA151016110615
:101B3C0024F013C00F5F1F4FEFCFFE01EB59FF4F87
:101B4C0083E390E08C0F9D1F080F191FD7018D9117
:101B5C007D018193A017B107C9F7BE016B597F4F67
:101B6C0080E80E943E0FCA56DF4F0FB6F894DEBFD6
:101B7C000FBECDBFDF91CF911F910F91FF90EF90D2
:061B8C00DF90CF900895E8
:101B92000FC00E94AE1538F00E94B51520F09523B3
:101BA20011F00C94C3150C94ED1511240C94BD1571
:101BB2000E948F1370F3959FC1F3950F50E0551F4C
:101BC200629FF001729FBB27F00DB11D639FAA2790
:101BD200F00DB11DAA1F649F6627B00DA11D661FDF
:101BE200829F2227B00DA11D621F739FB00DA11D00
:101BF200621F839FA00D611D221F749F3327A00DBA
:101C0200611D231F849F600D211D822F762F6A2F55
:101C120011249F5750409AF0F1F088234AF0EE0FBA
:101C2200FF1FBB1F661F771F881F91505040A9F7E7
:101C32009E3F510580F00C94C3150C94BD155F3F77
:101C4200E4F3983ED4F3869577956795B795F79523
:101C5200E7959F5FC1F7FE2B880F911D969587959B
:041C620097F9089551
:101C6600EF92FF920F931F93CF93DF93CDB7DEB71B
:101C760060970FB6F894DEBF0FBECDBF80E1EAE9EC
:101C8600F0E0DE01119601900D928A95E1F7E12CC4
:101C9600F12C0FEF60E081E00E94141161E081E019
:101CA6000E94141162E081E00E94141163E081E059
:101CB6000E9414118FE19BEC0197F1F700C0000020
:101CC6006E2D81E00E94731010E064E0610F81E0E8
:101CD6000E94DC1181110FC0F701EE0FFF1FEE0FFE
:101CE600FF1F81E090E08C0F9D1FE80FF91FE10FA9
:101CF600F11D008103C01F5F143039F79FEFE91A09
:101D0600F90A84E0E816F10429F6802F60960FB6EA
:101D1600F894DEBF0FBECDBFDF91CF911F910F911B
:061D2600FF90EF9008950C
:101D2C00CF93C62F8130C9F028F0823049F183302F
:101D3C00D1F14BC0413069F480B762E00E943B1096
:101D4C006C2F80E00E943B106C2F80E00E941411DD
:101D5C003CC080E00E94731038C0413069F480B7F9
:101D6C0062E00E943B106C2F81E00E943B106C2FB4
:101D7C0081E00E94141129C081E00E94731025C0DB
:101D8C00413069F480B762E00E943B106C2F82E016
:101D9C000E943B106C2F82E00E94141116C082E04E
:101DAC000E94731012C0413069F480B762E00E9447
:101DBC003B106C2F83E00E943B106C2F83E00E9441
:0E1DCC00141103C083E00E947310CF9108959C
:101DDA00EF92FF921F93CF93DF9300D000D0CDB73D
:101DEA00DEB78FEF89838A838B838C839E012F5F73
:101DFA003F4F790110E00E94330E8F3FE1F3F70164
:101E0A0081937F010E940B14FFEF25EA3EE0F15017
:101E1A0020403040E1F700C00000612F80E00E94BE
:101E2A0038158AE20E940B144FEF81EE94E041507C
:101E3A0080409040E1F700C000001F5F1430D9F6DF
:101E4A00BE016F5F7F4F80E80E943E0FEFEFF1EE19
:101E5A0024E0E150F0402040E1F700C000000F907C
:101E6A000F900F900F90DF91CF911F91FF90EF90FD
:021E7A000895C9
:101E7C00CF939B01482FF901849147FD80818032DB
:101E8C00C9F1682F082E000C770B69507109653069
:101E9C00710580F18B3249F5A0E0B0E02F5F3F4F28
:101EAC004F4F02C0A0E0B0E080E090E0CAE0F90142
:101EBC00649147FD6081062E000C770B605371090D
:101ECC006A30710560F4C89FF001C99FF00D1124B0
:101EDC002F5F3F4F4F4FCF01861B970BE8CFAB2B9C
:101EEC0069F491958195910909C08D32D9F6A1E0DB
:101EFC00B0E0D4CF2F5F3F4F4F4FBDCFCF91089560
:101F0C00E89409C097FB3EF4909580957095619587
:101F1C007F4F8F4F9F4F9923A9F0F92F96E9BB273D
:101F2C009395F695879577956795B795F111F8CFB9
:101F3C00FAF4BB0F11F460FF1BC06F5F7F4F8F4F24
:101F4C009F4F16C0882311F096E911C0772321F01A
:101F5C009EE8872F762F05C0662371F096E8862FB2
:101F6C0070E060E02AF09A95660F771F881FDAF709
:0A1F7C00880F9695879597F9089550
:101F860080E00E94721465E082E00E94E01066E044
:101F960082E00E94E0108FE19EE40197F1F700C015
:101FA600000066E082E00E94731067E082E00E9413
:101FB600E0108FE19EE40197F1F700C0000067E0B2
:101FC60082E00E94731082E00E94261481E00E9443
:101FD600261486E00E94261488E20E9426148CE0CD
:101FE6000E9426149FEF20E782E091502040804017
:081FF600E1F700C000000895AE
:101FFE008430B1F028F4823049F0833061F00895D6
:10200E00863099F0B8F08A30D1F0089562E082E01F
:10201E000E947310089563E082E00E947310089589
:10202E0064E082E00E947310089566E083E00E94EF
:10203E007310089565E083E00E947310089562E0C6
:10204E0082E00E94731063E082E00E94731064E0ED
:10205E0082E00E94731066E083E00E94731065E0D8
:08206E0083E00E947310089545
:10207600813091F028F0823039F18330C9F008952B
:102086002AB381E090E002C0880F991F6A95E2F7B3
:10209600809582238ABB089527B381E090E002C031
:1020A600880F991F6A95E2F78095822387BB08956A
:1020B60021B381E090E002C0880F991F6A95E2F78C
:1020C6008095822381BB089524B381E090E002C00D
:1020D600880F991F6A95E2F78095822384BB08953D
:1020E600813091F028F08230D9F0833029F10895BB
:1020F6002BB381E090E002C0880F991F6A95E2F742
:10210600809582238BBB089528B381E090E002C0BE
:10211600880F991F6A95E2F78095822388BB0895F8
:1021260025B381E090E002C0880F991F6A95E2F717
:102136008095822385BB089522B381E090E002C09A
:10214600880F991F6A95E2F78095822382BB0895CE
:1021560060E081E00E94E01061E081E00E94E01012
:1021660062E081E00E94E01063E081E00E94E010FE
:1021760064E081E00E943B1065E081E00E943B1034
:1021860066E081E00E943B1067E081E00E943B1020
:1021960041E064E081E00E94960E41E065E081E066
:1021A6000E94960E41E066E081E00E94960E41E0B4
:0A21B60067E081E00E94960E089594
:1021C000813089F028F08230C9F0833011F1089510
:1021D0002AB381E090E002C0880F991F6A95E2F768
:1021E000822B8ABB089527B381E090E002C0880F5C
:1021F000991F6A95E2F7822B87BB089524B381E08B
:1022000090E002C0880F991F6A95E2F7822B84BB89
:10221000089521B381E090E002C0880F991F6A956C
:08222000E2F7822B81BB089557
:10222800813089F028F08230C9F0833011F10895A7
:102238002BB381E090E002C0880F991F6A95E2F7FE
:10224800822B8BBB089528B381E090E002C0880FF1
:10225800991F6A95E2F7822B88BB089525B381E020
:1022680090E002C0880F991F6A95E2F7822B85BB20
:10227800089522B381E090E002C0880F991F6A9503
:08228800E2F7822B82BB0895EE
:102290001F920F920FB60F9211242F933F934F93DB
:1022A0005F936F937F938F939F93AF93BF93EF93BE
:1022B000FF938091B4019091B50101969093B5017F
:1022C0008093B401CE9731F40E94F4151092B501B9
:1022D0001092B401FF91EF91BF91AF919F918F91B7
:1022E0007F916F915F914F913F912F910F900FBE12
:0622F0000F901F901895ED
:1022F600CF93C82F84EA86BF0E94D61581B1887F06
:1023060091E0883009F090E0911106C091E08031AB
:1023160009F090E0992381F0C3B984E886BF0E9452
:10232600D61581B1887F883151F0803251F08034E2
:1023360051F0883419F409C0883349F009C081E0A6
:1023460007C082E005C083E003C084E001C080E0EE
:04235600CF91089586
:10235A000E94971388F09F5798F0B92F9927B75181
:10236A00B0F0E1F0660F771F881F991F1AF0BA952F
:10237A00C9F714C0B13091F00E94BC15B1E00895BC
:10238A000C94BC15672F782F8827B85F39F0B93FAE
:10239A00CCF3869577956795B395D9F73EF49095E2
:0E23AA008095709561957F4F8F4F9F4F0895DE
:1023B800813079F028F08230A9F08330E1F024C030
:1023C80089B390E002C0959587956A95E2F7817088
:1023D800089586B390E002C0959587956A95E2F7CF
:1023E8008170089583B390E002C0959587956A95AA
:1023F800E2F78170089580B390E002C095958795C3
:0C2408006A95E2F78170089580E0089565
:10241400CF93DF93D62FC72F0E947B118130B1F465
:10242400C3B984E886BF0E94D61581B1887F8832FB
:1024340051F4D3B984E886BF0E94D61581B1887F50
:10244400883231F406C0803319F405C0833029F092
:1024540005C081E003C080E001C082E0DF91CF913C
:022464000895D9
:102466001F920F920FB60F9211242F933F934F9303
:102476005F936F937F938F939F93AF93BF93EF93E6
:10248600FF9384B185B10E94F415FF91EF91BF913E
:10249600AF919F918F917F916F915F914F913F91F6
:0C24A6002F910F900FBE0F901F90189503
:1024B200813069F028F0823089F08330B1F00895DC
:1024C20083B78F7B83BF83B7877F83BF089583B72B
:1024D2008F7B83BF83B7886083BF089583B780648F
:1024E20083BF83B7877F83BF089583B7806483BF29
:0824F20083B7886083BF0895E1
:1024FA0062E082E00E94E01063E082E00E94E01065
:10250A0064E082E00E94E01066E083E00E94E0104E
:10251A0065E083E00E94E01082E00E94FF0F83E002
:10252A000E94FF0F84E00E94FF0F86E00E94FF0FC7
:08253A0085E00E94FF0F0895E7
:10254200FC01DB0120E030E005C08D91981311C041
:102552002F5F3F4F91919A32C1F7FB01E20FF31FB8
:1025620080818A3249F4233331054CF083E090E0D4
:10257200089583E090E0089583E090E0089582E07A
:0425820090E0089548
:10258600FC01DB0120E030E005C08D91981311C0FD
:102596002F5F3F4F91919A32C1F7FB01E20FF31F74
:1025A60080818A3249F4233331054CF085E090E08E
:1025B600089585E090E0089585E090E0089584E030
:0425C60090E0089504
:1025CA00FC01DB0120E030E005C08D91981311C0B9
:1025DA002F5F3F4F91919A32C1F7FB01E20FF31F30
:1025EA0080818A3249F4233331054CF087E090E048
:1025FA00089587E090E0089587E090E0089586E0E6
:04260A0090E00895BF
:10260E00FC01DB0120E030E005C08D91981311C074
:10261E002F5F3F4F91919A32C1F7FB01E20FF31FEB
:10262E0080818A3249F4233331054CF089E090E001
:10263E00089589E090E0089589E090E0089588E09B
:04264E0090E008957B
:10265200FC01DB0120E030E005C08D91981311C030
:102662002F5F3F4F91919A32C1F7FB01E20FF31FA7
:1026720080818A3249F4233331054CF08BE090E0BB
:1026820008958BE090E008958BE090E008958AE051
:0426920090E0089537
:10269600FC01DB0120E030E005C08D91981311C0EC
:1026A6002F5F3F4F91919A32C1F7FB01E20FF31F63
:1026B60080818A3249F4233331054CF08DE090E075
:1026C60008958DE090E008958DE090E008958CE007
:0426D60090E00895F3
:1026DA00FC01DB0120E030E005C08D91981311C0A8
:1026EA002F5F3F4F91919A32C1F7FB01E20FF31F1F
:1026FA0080818A3249F4233331054CF08FE090E02F
:10270A0008958FE090E008958FE090E008958EE0BC
:04271A0090E00895AE
:10271E0057FD9058440F551F59F05F3F71F0479584
:10272E00880F97FB991F61F09F3F79F08795089569
:10273E00121613061406551FF2CF4695F1DF08C088
:10274E00161617061806991FF1CF869571056105A5
:04275E00089408953E
:10276200FC01DB0120E030E005C08D9198130EC022
:102772002F5F3F4F91919A32C1F7FB01E20FF31F96
:1027820080818A3229F024E630E002C024E630E07B
:1027920081E090E02333310514F480E090E0089565
:1027A2000F931F93CF93DF938C01FC0180818A32B8
:1027B20039F0E80121960E94DA1589918A32D9F717
:1027C2008DE00E94DA15F801C801C2961192E8174D
:0E27D200F907E1F7DF91CF911F910F91089564
:1027E0000F931F93CF93DF93C82F162F042FD22F51
:1027F0000E945912812F0E946015C250C23018F4F5
:10280000802F0E9441148D2F0E949215DF91CF914D
:062810001F910F910895D5
:10281600CF93C82F65E082E00E9414118BB38F70AE
:102826009C2F907F892B8BBB0E94ED148BB3282F96
:102836002F7030E1C39FC0011124822B8BBB0E94F5
:06284600ED14CF9108958E
:10284C00CF93C82F65E082E00E9473108BB38F701A
:10285C009C2F907F892B8BBB0E94ED148BB3282F60
:10286C002F7030E1C39FC0011124822B8BBB0E94BF
:06287C00ED14CF91089558
:1028820064E670E0681B7109072E000C880B990B37
:102892000E94880F20E030E04FE753E40E94E615E3
:1028A20020E030E048EC52E40E94E2150E94AD11B3
:0428B2006CBF08955A
:1028B600CF93DF93CDB7DEB72B970FB6F894DEBF75
:1028C6000FBECDBFCE0101960E94FC142B960FB60B
:0E28D600F894DEBF0FBECDBFDF91CF91089505
:1028E400813049F028F0823061F0833039F0089566
:1028F4008FEF8ABB08958FEF87BB08958FEF81BB5D
:0829040008958FEF84BB0895D4
:10290C00CF93DF93D62FC42F0E9499158D2F0E9441
:10291C006B158C2F0E94A0150E94F6150E94F215C3
:06292C00DF91CF91089538
:1029320067E083E00E94E0102FEF80E792E02150F1
:1029420080409040E1F700C000008DE785BD83E440
:0429520083BD0895A4
:1029560062E080E00E94E01063E080E00E94E01008
:1029660064E083E00E94E01064E083E00E941411BA
:022976000895C2
:10297800092E0394000C11F4882352F0BB0F40F485
:10298800BF2B11F460FF04C06F5F7F4F8F4F9F4FC5
:022998000895A0
:10299A0083B984E886BF0E94D61581B1887F8832C0
:1029AA0019F0803319F0089581E0089580E00895C0
:1029BA00CF93DF930E941A15C82FD0E00E941A15F0
:1029CA0094E996BF9E01382BC901DF91CF910895F2
:1029DA0067E082E00E9414118FE39CE90197F1F706
:0E29EA0000C0000067E082E00E9473100895B4
:1029F800CF93DF93EC018881882331F021960E94E0
:0E2A08000B1489918111FBCFDF91CF910895BE
:102A160080B981B1836081B942B92FEF81EE94E02C
:0E2A2600215080409040E1F700C0000008956C
:102A340084EC86BF0E94D61581B1887F803511F45D
:0E2A440083B10895883511F484E986BF0895A2
:102A5200CF93C92F0E94CD14813039F48C2F0E945C
:0E2A6200CD14813011F484E986BFCF91089520
:102A7000811105C080E8860F0E94261408958130D8
:0C2A800021F480EC860F0E9426140895BB
:102A8C0062E080E00E94731063E080E00E947310AB
:0A2A9C0064E082E00E9473100895C8
:102AA600992777FD05C005900D920197E1F70895E6
:0A2AB60001900D920197E1F70895D9
:102AC00093B79F7C93BF23B730E1839FC00111244C
:062AD000822B83BF089574
:102AD60097B19F7397B927B130E4839FC001112442
:062AE600822B87B9089560
:102AEC00EC010E94FD150E94FC15CE010E94FE1502
:062AFC00CE010E94FA1554
:102B020062E080E00E94141163E080E00E94731092
:022B1200089524
:102B140087E689B98AB188618AB98EE880BD08954B
:0E2B240093B7987F93BF93B7892B83BF089513
:0E2B320097B1907E97B997B1892B87B9089516
:0E2B400096B1987F96B996B1892B86B9089503
:0E2B4E000E94AD116894B1110C94BD1508954C
:0E2B5C0000240A941616170618060906089596
:0E2B6A0000240A941216130614060506089598
:0E2B7800E894BB2766277727CB0197F90895CD
:0C2B860097F99F6780E870E060E0089518
:0A2B920084B125B190E0922B089564
:082B9C0089B7816089BF08952B
:082BA40081E00E94261408954F
:082BAC0006B607FEFDCF0895F7
:082BB4005D9BFECF8CB9089572
:082BBC005F9BFECF8CB1089570
:082BC4000E94EF0C0C94BC14FC
:082BCC000E94C90D0C94BC1419
:062BD40083E483BD0895B7
:062BDA009FEF80EC08955E
:042BE0000C94000051
:042BE400379A08957F
:042BE800369A08957C
:042BEC00339A08957B
:042BF00013BC089575
:042BF4000E946400D7
:022BF80008953E
:022BFA0008953C
:022BFC0008953A
:102BFE0052656164696E672054656D7065726174AB
:042C0E007572650076
:102C12005072657373203020666F72206E6578740F
:012C220000B1
:102C2300392D4C616D7020696E74656E73697479AA
:012C330000A0
:102C34003738392F3435362A3132332D41303D2B54
:102C44005072657373203920746F206261636B0066
:102C54005072657373203820746F206261636B0057
:102C64005072657373202B20746F2065786974002B
:0F2C7400372D736572766F204F6E2F4F66660097
:0F2C8300362D4D6F746F72204F6E2F4F666600A7
:0E2C9200352D4C656435204F6E2F4F66660061
:0E2CA000342D4C656434204F6E2F4F66660055
:0E2CAE00332D4C656433204F6E2F4F66660049
:0E2CBC00322D4C656432204F6E2F4F6666003D
:0E2CCA00312D4C656431204F6E2F4F66660031
:0C2CD800302D486F6D652070616765004D
:0C2CE400302D4E6578742070616765002B
:0C2CF000382D54656D7020526561640041
:0C2CFC0047657474696E67204C656400C5
:0C2D08004C454435204953204F4E2A0012
:0C2D14004C454434204953204F4E2A0007
:0C2D20004C454433204953204F4E2A00FC
:0C2D2C004C454432204953204F4E2A00F1
:0C2D38004C454431204953204F4E2A00E6
:0A2D4400696E74656E73697479009E
:022D4E0056002D
:012D5000FF83
:00000001FF
