:100000000C943C000C94FA150C94FA150C94FA1507
:100010000C94FA150C94FA150C94FA150C94FA1524
:100020000C94FA150C94FA150C94FA150C945211C0
:100030000C94FA150C94FA150C94FA150C94FA1504
:100040000C943D120C94FA150C94FA150C94FA15B4
:100050000C94FA150060006480006401B4002C1256
:1000600001B401B68001B601B8002D6201B801B932
:100070008001B901BA002D6411241FBECFE5D8E07C
:10008000DEBFCDBFE4E5F0E040E017C0B591A5913B
:1000900035912591059107FD0CC095918591EF0152
:1000A000F92FE82F05900D92A217B307D9F7FE019B
:1000B00004C01D92A217B307E1F7E837F40731F740
:0C00C0000E9423090C948015F894FFCFD7
:1000CC00656E7465722061646D696E207061737306
:1000DC002A000000000000000000000000000000EA
:1000EC000000000000000000000000000000000004
:1000FC000000757365722069732061646465642AFD
:10010C0000000000000000000000000000000000E3
:10011C0000000000000000000000000000000000D3
:10012C0000000000656E7465722075736572207036
:10013C006173732A00000000000000000000000042
:10014C0000000000000000000000000000000000A3
:10015C000000000000006F70656E20736572766F92
:10016C002A00000000000000000000000000000059
:10017C000000000000000000000000000000000073
:10018C000000000000000000636C6F736520736555
:10019C0072766F2A000000000000000000000000D2
:1001AC000000000000000000000000000000000043
:1001BC0000000000000000000000637265617465BF
:1001CC00206E657720757365722A000000000000B0
:1001DC000000000000000000000000000000000013
:1001EC000000000000000000000000006C6564319D
:1001FC00206F6E2A000000000000000000000000CC
:10020C0000000000000000000000000000000000E2
:10021C0000000000000000000000000000006C6501
:10022C006431206F66662A000000000000000000A8
:10023C0000000000000000000000000000000000B2
:10024C0000000000000000000000000000000000A2
:10025C006C656432206F6E2A000000000000000004
:10026C000000000000000000000000000000000082
:10027C000000000000000000000000000000000072
:10028C0000006C656432206F66662A000000000076
:10029C000000000000000000000000000000000052
:1002AC000000000000000000000000000000000042
:1002BC00000000006C656433206F6E2A00000000A3
:1002CC000000000000000000000000000000000022
:1002DC000000000000000000000000000000000012
:1002EC000000000000006C656433206F66662A0015
:1002FC0000000000000000000000000000000000F2
:10030C0000000000000000000000000000000000E1
:10031C0000000000000000006C656434206F6E2A41
:10032C0000000000000000000000000000000000C1
:10033C0000000000000000000000000000000000B1
:10034C00000000000000000000006C656434206FA9
:10035C0066662A000000000000000000000000009B
:10036C000000000000000000000000000000000081
:10037C000000000000000000000000006C65643507
:10038C00206F6E2A0000000000000000000000003A
:10039C000000000000000000000000000000000051
:1003AC0000000000000000000000000000006C6570
:1003BC006435206F66662A00000000000000000013
:1003CC000000000000000000000000000000000021
:1003DC000000000000000000000000000000000011
:1003EC0072756E206D6F746F722A00000000000031
:1003FC0000000000000000000000000000000000F1
:10040C0000000000000000000000000000000000E0
:10041C00000073746F70206D6F746F722A0000008F
:10042C0000000000000000000000000000000000C0
:10043C0000000000000000000000000000000000B0
:10044C0000000000736572766F206973206F706511
:10045C006E65642A0000000000000000000000002F
:10046C000000000000000000000000000000000080
:10047C00000000000000736572766F2069732063C2
:10048C006C6F7365642A000000000000000000001F
:10049C000000000000000000000000000000000050
:1004AC0000000000000000006D6F746F7220727508
:1004BC006E6E696E672A00000000000000000000EC
:1004CC000000000000000000000000000000000020
:1004DC00000000000000000000006D6F746F7220BF
:1004EC0073746F702A000000000000000000000010
:1004FC0000000000000000000000000000000000F0
:0C050C00000000000000000000000000E3
:10051800656E7465722075736572200077726F6EF0
:10052800672070617373776F726400506C656173D4
:100538006520526573657420546865005379737437
:10054800656D0041646D696E20207061737300638E
:100558006F72726563740070617373776F72640091
:1005680041646D696E207573696E670055736572B5
:10057800207573696E67005072657373202F20743D
:100588006F206C6F67696E005072657373202D2041
:1005980034206B6579706164005072657373204F05
:1005A8002F4320322045786974004E6F20557365BB
:1005B8007220466F756E64004E6F205065726D69CB
:1005C8007373696F6E00506173732052657175693A
:0405D80072656400E4
:1005DC00CF93DF930E94DC158AE491E00E9406150C
:1005EC002FEF32E587E0215030408040E1F700C02A
:1005FC0000000E94DC1580E391E00E940615EFEDEF
:10060C00FEE23197F1F700C0000060E081E00E944B
:10061C0042158FED9EE20197F1F700C0000082E2D7
:10062C0091E00E9406159FEFE9E6F8E19150E04059
:10063C00F040E1F700C000000E943D0E9091B9011E
:10064C00891300C302C32FEF39EF80E021503040F3
:10065C008040E1F700C000000E943D0E813301F59F
:10066C0062E082E00E94E611882369F09FEFE8E5E2
:10067C00F6E09150E040F040E1F700C0000082E06D
:10068C000E94091030C02FEF38E586E02150304031
:10069C008040E1F700C0000082E00E94B70B23C04D
:1006AC000E943D0E8233F9F463E082E00E94E61171
:1006BC00882369F09FEFE8E5F6E09150E040F040C8
:1006CC00E1F700C0000083E00E9409100CC02FEF7E
:1006DC0038E586E0215030408040E1F700C0000052
:1006EC0083E00E94B70B1092B8010E943D0E80333C
:1006FC0009F0A9CF0E94DC15EFEDFEE23197F1F77E
:10070C0000C0000084E191E00E9406158FED9EE28E
:10071C000197F1F700C0000060E081E00E944215F3
:10072C00EFEDFEE23197F1F700C0000086E091E0BA
:10073C000E940615FFEF23EC39E0F15020403040C9
:10074C00E1F700C0000050C08FEF99EFE0E081505E
:10075C009040E040E1F700C000000E943D0E833362
:10076C0001F564E082E00E94E611882369F0FFEF56
:10077C0028E536E0F15020403040E1F700C00000A1
:10078C0084E00E94091030C08FEF98E5E6E08150BC
:10079C009040E040E1F700C0000084E00E94B70BFD
:1007AC0023C00E943D0E8433F9F466E083E00E947E
:1007BC00E611882369F0FFEF28E536E0F150204080
:1007CC003040E1F700C0000086E00E9409100CC028
:1007DC008FEF98E5E6E081509040E040E1F700C0F3
:1007EC00000086E00E94B70B0E943D0E803309F09A
:1007FC00ABCF0E94DC158FED9EE20197F1F700C0A4
:10080C00000088EF90E00E940615EFEDFEE23197B4
:10081C00F1F700C0000060E081E00E9442158FED0E
:10082C009EE20197F1F700C0000089EE90E00E9473
:10083C0006159FEFE3ECF9E09150E040F040E1F752
:10084C0000C000004EC02FEF39EF80E02150304047
:10085C008040E1F700C000000E943D0E853301F599
:10086C0065E083E00E94E611882369F09FEFE8E5DC
:10087C00F6E09150E040F040E1F700C0000085E068
:10088C000E9409102EC02FEF38E586E02150304031
:10089C008040E1F700C0000085E00E94B70B21C04A
:1008AC000E943D0E8633E9F462E080E00E94E6117E
:1008BC00882361F09FEFE8E5F6E09150E040F040CE
:1008CC00E1F700C000000E9450150BC02FEF38E577
:1008DC0086E0215030408040E1F700C000000E94CB
:1008EC008B150E943D0E803309F0ADCF0E94DC15B4
:1008FC00EFEDFEE23197F1F700C000008AED90E0D9
:10090C000E9406158FED9EE20197F1F700C00000E2
:10091C0060E081E00E944215EFEDFEE23197F1F7C5
:10092C0000C0000086E591E00E940615FFEF23EC65
:10093C0039E0F15020403040E1F700C00000A5C084
:10094C008FEF99EFE0E081509040E040E1F700C07C
:10095C0000000E943D0E8733F1F467E083E00E94B3
:10096C00E611882361F0FFEF28E536E0F1502040D6
:10097C003040E1F700C000000E94F41586C08FEFF4
:10098C0098E5E6E081509040E040E1F700C00000BF
:10099C000E9402167AC00E943D0E883309F075C081
:1009AC00FFEF23EC39E0F15020403040E1F700C07C
:1009BC0000000E94DC1584E690E00E9406158FED85
:1009CC009EE20197F1F700C0000060E081E00E9418
:1009DC0042158AEC90E00E9406159FEFE9E6F8E1DB
:1009EC009150E040F040E1F700C000000E94DC159F
:1009FC008FE19EE40197F1F700C0000081E00E94B6
:100A0C00A3150E94FE150E94D315EFEDFEE231975F
:100A1C00F1F700C000000E946514FFEF25EA3EE0EC
:100A2C00F15020403040E1F700C000000E94DC157E
:100A3C000E943D0E8B32D1F60E94DC158FED9EE2AA
:100A4C000197F1F700C0000088E790E00E940615BE
:100A5C00EFE1FEE43197F1F700C0000060E081E0C7
:100A6C000E9442158FED9EE20197F1F700C0000045
:100A7C008AEB90E00E9406159FEFE5EAFEE09150AC
:100A8C00E040F040E1F700C000000E943D0E8033D2
:100A9C0009F056CF0E94DC158FED9EE20197F1F71D
:100AAC0000C0000089E890E00E940615EFE1FEE42A
:100ABC003197F1F700C0000060E081E00E94421520
:100ACC008FED9EE20197F1F700C000008EE391E0FC
:100ADC000E9406159FEFE3ECF9E09150E040F040E6
:100AEC00E1F700C00000C8E8D3E19BC00E943D0EB6
:100AFC00893309F096C00E94DC158FED9EE20197B8
:100B0C00F1F700C0000082E691E00E940615EFE1CB
:100B1C00FEE43197F1F700C0000060E081E00E9434
:100B2C0042158FED9EE20197F1F700C000008AEAB2
:100B3C0091E00E9406159FEFE4E3FCE09150E04049
:100B4C00F040E1F700C000000E94DC1580E00E943C
:100B5C00A3150E94FE150E94D3159C012C9FC00169
:100B6C002D9F900D3C9F900D1124992314F48150CE
:100B7C009C4FBC01672F770F770B65956595072EFA
:100B8C00000C880B990B0E94920F20E030E04AE792
:100B9C0054E40E94EC150E94B115CB010E9465141F
:100BAC008FED9EE20197F1F700C0000086EB91E01B
:100BBC000E9406159FEFE9E6F8E19150E040F04005
:100BCC00E1F700C000000E943D0E8B3209F0BCCF53
:100BDC000E94DC158FED9EE20197F1F700C000003A
:100BEC0088E790E00E940615EFE1FEE43197F1F7FB
:100BFC0000C0000060E081E00E9442158FED9EE293
:100C0C000197F1F700C000008AEA90E00E940615F7
:100C1C009FEFE5EAFEE09150E040F040E1F700C0C4
:100C2C0000000E943D0E803309F060CF0E94DC155D
:100C3C002FEF33EC89E0215030408040E1F700C0C9
:100C4C00000003C0813409F050CDDF91CF9108959D
:100C5C00CF92DF92EF920F931F93CF93DF93CDB789
:100C6C00DEB7C85ED3400FB6F894DEBF0FBECDBF63
:100C7C0060E081E00E94EA1022E631E040E08CE086
:100C8C00F901DE011196742F0E945D1546E2FE01FA
:100C9C003D96DF01842F1D928A95E9F70F2EF4E91A
:100CAC00CF2EF1E0DF2EF0E0EF2EF02D8DE0F601EF
:100CBC00DE01D3967E2D0E945D15FE01E05CFF4F98
:100CCC0085E2DF011D928A95E9F70F2EF6ECCF2E07
:100CDC00F1E0DF2EF0E0EF2EF02D81E1F601DE01E8
:100CEC00AB59BF4F7E2D0E945D1561E2E5E6F0E049
:100CFC00EC0FFD1F7196DF01862F1D928A95E9F787
:100D0C000F2EF8EFCF2EF1E0DF2EF0E0EF2EF02DCE
:100D1C0089E0F601DE01A956BF4F7E2D0E945D15BC
:100D2C0039E2E7E9F0E0EC0FFD1F3996DF01832F84
:100D3C001D928A95E9F70F2EFAE2CF2EF2E0DF2E04
:100D4C00F0E0EF2EF02D8AE0F601DE01A753BF4F45
:100D5C007E2D0E945D1528E2E9ECF0E0EC0FFD1F02
:100D6C003A96DF01822F1D928A95E9F70F2EFCE54A
:100D7C00CF2EF2E0DF2EF0E0EF2EF02D89E0F60121
:100D8C00DE01A550BF4F7E2D0E945D15EBEFF0E00C
:100D9C00EC0FFD1F3996DF01832F1D928A95E9F721
:100DAC000F2EFEE8CF2EF2E0DF2EF0E0EF2EF02D2E
:100DBC008AE0F601DE01A35DBE4F7E2D0E945D151B
:100DCC00EDE2F1E0EC0FFD1F3A96DF01822F1D9250
:100DDC008A95E9F70F2EF0ECCF2EF2E0DF2EF0E043
:100DEC00EF2EF02D89E0F601DE01A15ABE4F7E2DCB
:100DFC000E945D15EFE5F1E0EC0FFD1F3996DF0168
:100E0C00832F1D928A95E9F70F2EF2EFCF2EF2E089
:100E1C00DF2EF0E0EF2EF02D8AE0F601DE01AF566A
:100E2C00BE4F7E2D0E945D15E1E9F1E0EC0FFD1F38
:100E3C003A96DF01822F1D928A95E9F70F2EF4E284
:100E4C00CF2EF3E0DF2EF0E0EF2EF02D89E0F6014F
:100E5C00DE01AD53BE4F7E2D0E945D15E3ECF1E03B
:100E6C00EC0FFD1F3996DF01832F1D928A95E9F750
:100E7C000F2EF6E5CF2EF3E0DF2EF0E0EF2EF02D67
:100E8C008AE0F601DE01AB50BE4F7E2D0E945D154F
:100E9C00E5EFF1E0EC0FFD1F3A96DF01822F1D927A
:100EAC008A95E9F70F2EF8E8CF2EF3E0DF2EF0E06D
:100EBC00EF2EF02D89E0F601DE01A95DBD4F7E2DF0
:100ECC000E945D15E7E2F2E0EC0FFD1F3996DF01A1
:100EDC001D923A95E9F70F2EFAEBCF2EF3E0DF2EA9
:100EEC00F0E0EF2EF02D8AE0F601DE01A75ABD4F9F
:100EFC007E2D0E945D15E9E5F2E0EC0FFD1F3A96A0
:100F0C00DF011D922A95E9F70F2EFCEECF2EF3E0B0
:100F1C00DF2EF0E0EF2EF02D8BE0F601DE01A55771
:100F2C00BD4F7E2D0E945D15EBE8F2E0EC0FFD1F2E
:100F3C003B9687E2DF011D928A95E9F70F2EFEE1C1
:100F4C00CF2EF4E0DF2EF0E0EF2EF02D8CE0F6014A
:100F5C00DE01A354BD4F7E2D0E945D15EDEBF2E03A
:100F6C00EC0FFD1F3C96DF01842F1D928A95E9F74B
:100F7C000F2EF0E5CF2EF4E0DF2EF0E0EF2EF02D6B
:100F8C0081E1F601DE01A151BD4F7E2D0E945D1560
:100F9C00EFEEF2E0EC0FFD1F7196DF01862F1D9234
:100FAC008A95E9F70F2EF2E8CF2EF4E0DF2EF0E071
:100FBC00EF2EF02D81E1F601DE01AF5DBC4F7E2DF1
:100FCC000E945D15E1E2F3E0EC0FFD1F7196DF016D
:100FDC001D926A95E9F70F2EF4EBCF2EF4E0DF2E7D
:100FEC00F0E0EF2EF02D8FE0F601DE01AD5ABC4F94
:100FFC007E2D0E945D15E3E5F3E0EC0FFD1F3F969F
:10100C0083E2DF011D928A95E9F70F2EF6EECF2EC3
:10101C00F4E0DF2EF0E0EF2EF02D8CE0F601DE0197
:10102C00AB57BC4F7E2D0E945D15E5E8F3E0EC0F4D
:10103C00FD1F3C96DF011D924A95E9F78E0109547C
:10104C001C4F0E94E815F80181938F018A32C9F771
:10105C008DE00E94E415BE016F5F7F4FCE01895475
:10106C009C4F0E94BB13892B41F40E940216CE01A7
:10107C0081519D4F0E94DB1311C0BE016D5C7F4FEF
:10108C00CE0189549C4F0E94BB13892B39F40E94CA
:10109C00F415CE018F5D9C4F0E94DB13BE0165578A
:1010AC007D4FCE0189549C4F0E94AB12029741F4A4
:1010BC000E948B15CE018D5A9C4F0E94DB13AEC043
:1010CC00BE0163547D4FCE0189549C4F0E94AB12DC
:1010DC00029741F40E945015CE018B579C4F0E94F1
:1010EC00DB139CC0BE016B597F4FCE0189549C4FC2
:1010FC000E94CD12049739F40E945F0C909361000A
:10110C00809360008BC0BE0169567F4FCE0189541D
:10111C009C4F0E94EF12069721F482E00E94B70BBD
:10112C007DC0BE0167537F4FCE0189549C4F0E94F6
:10113C00EF12069721F482E00E9409106FC0BE01E5
:10114C0065507F4FCE0189549C4F0E941113089714
:10115C0021F483E00E94B70B61C0BE01635D7E4F3A
:10116C00CE0189549C4F0E941113089721F483E0FF
:10117C000E94091053C0BE01615A7E4FCE018954A2
:10118C009C4F0E9433130A9721F484E00E94B70B02
:10119C0045C0BE016F567E4FCE0189549C4F0E94B4
:1011AC0033130A9721F484E00E94091037C0BE0162
:1011BC006D537E4FCE0189549C4F0E9455130C9752
:1011CC0021F486E00E94B70B29C0BE016B507E4F04
:1011DC00CE0189549C4F0E9455130C9721F486E044
:1011EC000E9409101BC0BE01695D7D4FCE01895460
:1011FC009C4F0E9477130E9721F485E00E94B70B49
:10120C000DC0BE01675A7D4FCE0189549C4F0E9480
:10121C0077130E9719F485E00E940910C851DC4F22
:10122C000FB6F894DEBF0FBECDBFDF91CF911F91EB
:0A123C000F91EF90DF90CF9008951E
:10124600CF93DF93CDB7DEB7C45CD1090FB6F89460
:10125600DEBF0FBECDBF62E083E00E94451063E0B3
:1012660083E00E94EA100E94941546E050E063E095
:1012760070E08FEF90E00E9415150E94CD0F0E943E
:10128600B5100E94871247E061E081E00E94901449
:1012960047E061E080E00E94901425E042E360E0D0
:1012A60080E00E94FA130E94D81581E090E00E9427
:1012B600B5140E94A31469E171E082EA0E94141237
:1012C60083E099E00E9433152FEF89EF90E02150DB
:1012D60080409040E1F700C000006CE171E082EAD6
:1012E6000E94141280E090E00E9433152FEF80E7F1
:1012F60092E0215080409040E1F700C0000028E1D4
:1013060035E040E08CE0F901DE011196742F0E9471
:101316005D1524E235E040E08FE0F901DE011D961F
:10132600742F0E945D1523E335E040E081E1F90169
:10133600DE015C96742F0E945D1524E435E040E0E2
:1013460087E0F901DE019D96742F0E945D152BE45E
:1013560035E040E08CE0F901DE01D496742F0E945E
:101366005D1527E535E040E088E0F901DE01A05C87
:10137600BF4F742F0E945D152FE535E040E089E0F0
:10138600F901DE01A85BBF4F742F0E945D1528E6A8
:1013960035E040E08CE0F901DE01AF5ABF4F742F13
:1013A6000E945D1524E735E040E08BE0F901DE019F
:1013B600A35ABF4F742F0E945D152FE735E040E01A
:1013C60081E1F901DE01A859BF4F742F0E945D1516
:1013D60020E935E040E081E1F901DE01A758BF4F81
:1013E600742F0E945D1521EA35E040E081E1F901A4
:1013F600DE01A657BF4F742F0E945D1522EB35E024
:1014060040E08EE0F901DE01A556BF4F742F0E9421
:101416005D1520EC35E040E08EE0F901DE01A755D0
:10142600BF4F742F0E945D152EEC35E040E08EE034
:10143600F901DE01A954BF4F742F0E945D1503E028
:1014460010E00E94680D8330994009F035C10E9472
:10145600DC15CE01C4960E9406158FE19EE4019725
:10146600F1F700C0000062E081E00E944215CE0163
:10147600805C9F4F0E9406159FEF29E688E19150F8
:1014860020408040E1F700C00000912CA12CB12C37
:10149600712C812C62E083E00E94E611882349F0DA
:1014A6000E94DC15CE018F5A9F4F0E9406150E949E
:1014B6002E060E94DC158FED9EE20197F1F700C023
:1014C6000000CE0188599F4F0E9406158FE19EE4C9
:1014D6000197F1F700C0000060E081E00E9442152C
:1014E600CE0187589F4F0E9406159FEF29E688E197
:1014F600915020408040E1F700C000000E94DC15BA
:101506008FED9EE20197F1F700C000000E943D0EAC
:10151600E82EF12C9FE2E916F10409F406C12DE24A
:10152600E216F10409F0B6CF6CE171E082EA0E949E
:1015360014126CE171E083EA0E9414128FE19EE4BA
:101546000197F1F700C000000E94E7146C01892B97
:1015560009F002C1A0C00E94DC158FE39CE9019747
:10156600F1F700C00000CE0101960E9406158FE13A
:101576009EE40197F1F700C0000060E081E00E9460
:101586004215CE01885B9F4F0E9406159FEF29E604
:1015960088E1915020408040E1F700C000000E94A1
:1015A600DC150E94F70E8C010E94DC1592E0A9164C
:1015B600B10434F00C151D0559F0911009C0A2C0F4
:1015C6000C151D0519F404C0072D182D992091F14D
:1015D6002DE2E216F10439F5CE01835A9F4F0E949F
:1015E60006158FEF95EA2EE0815090402040E1F7F6
:1015F60000C0000018C00E94DC158FED9EE2019726
:10160600F1F700C00000CE0186579F4F0E940615D5
:101616009FEF26E181E1915020408040E1F700C034
:1016260000000E94EE020E943D0E813421F79924AB
:10163600939430CF012B89F0CE010D960E940615AA
:101646009FEF21EE84E0915020408040E1F700C0FA
:1016560000009FEFA91AB90A1DCFCE0187559F4FEB
:101666000E9406158FE19EE40197F1F700C0000085
:1016760060E081E00E944215CE0189549F4F0E948E
:1016860006159FEF26E181E1915020408040E1F769
:1016960000C00000FFCECE0185569F4F0E94061562
:1016A6009FEF29E688E1915020408040E1F700C095
:1016B60000000E94DC15EECE0E94DC15CE010D96D0
:1016C6000E9406159FEF23EC89E091502040804050
:1016D600E1F700C000000150110909F0B2CE63E045
:1016E60083E00E941E110E94DC15CE014C960E94DA
:1016F600061564E081E00E944215CE018D960E9497
:101706000615FFCF63E083E00E941E110E94DC15E0
:10171600CE014C960E94061564E081E00E944215B7
:10172600CE018D960E940615FFCF6CE171E082EA2C
:101736000E9414126CE171E083EA0E9414128FE198
:101746009EE40197F1F700C000000E94E7146C01C7
:10175600892B09F4A0CFFFCE92E0A916B1040CF4B0
:0817660033CF072D182D26CF0B
:10176E00843009F43FC028F4823061F0833011F1E7
:10177E000895863009F44EC008F464C08A3009F426
:10178E0079C0089562E082E00E941E110E94DC156D
:10179E008EE991E00E9406158EE991E00E94DB131E
:1017AE002FEF89E698E1215080409040E1F700C08C
:1017BE000000089563E082E00E941E110E94DC1575
:1017CE0082E991E00E94061582E991E00E94DB1306
:1017DE002FEF89E698E1215080409040E1F700C05C
:1017EE000000089564E082E00E941E110E94DC1544
:1017FE0086E891E00E94061586E891E00E94DB13D0
:10180E002FEF89E698E1215080409040E1F700C02B
:10181E000000089566E083E00E941E110E94DC1510
:10182E008AE791E00E9406158AE791E00E94DB1399
:10183E002FEF89E698E1215080409040E1F700C0FB
:10184E000000089565E083E00E941E110E94DC15E1
:10185E008EE691E00E9406158EE691E00E94DB1363
:10186E002FEF89E698E1215080409040E1F700C0CB
:10187E000000089562E082E00E941E1163E082E0A3
:10188E000E941E1164E082E00E941E1166E083E059
:10189E000E941E1165E083E00E941E112FEF89E663
:1018AE0098E1215080409040E1F700C0000008957B
:1018BE00CF92DF92EF92FF920F931F93CF93DF930E
:1018CE00CDB7DEB7C85CD1090FB6F894DEBF0FBE38
:1018DE00CDBF2EEF30E040E08FE0F901DE01119632
:1018EE00742F0E945D15FE01709683E2DF011D923A
:1018FE008A95E9F720E331E040E081E1F901DE016C
:10190E00D396742F0E945D15FE01EC5BFF4F81E2B2
:10191E00DF011D928A95E9F7CE01C3960E94DB1373
:10192E007E01B5E6EB0EF11CC701C296F7011192CE
:10193E00E817F907E1F7670100E010E00E94E815EB
:10194E00F60181936F018A3239F48DE00E94E4151D
:10195E001016110624F013C00F5F1F4FEFCFFE01BC
:10196E00E956FF4F85E690E08C0F9D1F080F191F5B
:10197E00D7018D917D018193A017B107C9F7BE01E3
:10198E0069567F4F80E80E94480F909363008093C2
:10199E0062006CE171E082EA0E9414128091620092
:1019AE00909163000E943315EFE3FCE93197F1F754
:1019BE0000C00000CE0101960E94DB1380916200F0
:1019CE0090916300C853DF4F0FB6F894DEBF0FBE81
:1019DE00CDBFDF91CF911F910F91FF90EF90DF90D0
:0419EE00CF900895F9
:1019F20010C00E94BF1558F00E94B81540F029F49B
:101A02005F3F29F00C94CD1551110C94C7150C941D
:101A1200F7150E94991368F39923B1F3552391F3B3
:101A2200951B550BBB27AA2762177307840738F04B
:101A32009F5F5F4F220F331F441FAA1FA9F335D0A8
:101A42000E2E3AF0E0E832D091505040E695001C5C
:101A5200CAF72BD0FE2F29D0660F771F881FBB1F16
:101A6200261737074807AB07B0E809F0BB0B802DF4
:101A7200BF01FF2793585F4F3AF09E3F510578F020
:101A82000C94CD150C94C7155F3FE4F3983ED4F344
:101A9200869577956795B795F7959F5FC9F7880FF4
:101AA200911D9695879597F90895E1E0660F771F46
:101AB200881FBB1F621773078407BA0720F0621BD7
:0E1AC200730B840BBA0BEE1F88F7E0950895A6
:101AD000CF92DF92EF92FF920F931F93CF93DF93FA
:101AE000CDB7DEB7C659D1090FB6F894DEBF0FBE29
:101AF000CDBF2CEC30E040E082E1F901DE0111962F
:101B0000742F0E945D15FE01739680E2DF011D9225
:101B10008A95E9F7CE0101960E94DB137E01B3E3BB
:101B2000EB0EF11CC701C296F7011192E817F907F5
:101B3000E1F7670100E010E00E94E815F6018193EB
:101B40006F018A3239F48DE00E94E41510161106F7
:101B500024F013C00F5F1F4FEFCFFE01EB59FF4F73
:101B600083E390E08C0F9D1F080F191FD7018D9103
:101B70007D018193A017B107C9F7BE016B597F4F53
:101B800080E80E94480FCA56DF4F0FB6F894DEBFB8
:101B90000FBECDBFDF91CF911F910F91FF90EF90BE
:061BA000DF90CF900895D4
:101BA6000FC00E94B81538F00E94BF1520F095238B
:101BB60011F00C94CD150C94F71511240C94C7153F
:101BC6000E94991370F3959FC1F3950F50E0551F2E
:101BD600629FF001729FBB27F00DB11D639FAA277C
:101BE600F00DB11DAA1F649F6627B00DA11D661FCB
:101BF600829F2227B00DA11D621F739FB00DA11DEC
:101C0600621F839FA00D611D221F749F3327A00DA5
:101C1600611D231F849F600D211D822F762F6A2F41
:101C260011249F5750409AF0F1F088234AF0EE0FA6
:101C3600FF1FBB1F661F771F881F91505040A9F7D3
:101C46009E3F510580F00C94CD150C94C7155F3F4F
:101C5600E4F3983ED4F3869577956795B795F7950F
:101C6600E7959F5FC1F7FE2B880F911D9695879587
:041C760097F908953D
:101C7A00EF92FF920F931F93CF93DF93CDB7DEB707
:101C8A0060970FB6F894DEBF0FBECDBF80E1EAE9D8
:101C9A00F0E0DE01119601900D928A95E1F7E12CB0
:101CAA00F12C0FEF60E081E00E941E1161E081E0FB
:101CBA000E941E1162E081E00E941E1163E081E031
:101CCA000E941E118FE19BEC0197F1F700C0000002
:101CDA006E2D81E00E947D1010E064E0610F81E0CA
:101CEA000E94E61181110FC0F701EE0FFF1FEE0FE0
:101CFA00FF1F81E090E08C0F9D1FE80FF91FE10F95
:101D0A00F11D008103C01F5F143039F79FEFE91AF4
:101D1A00F90A84E0E816F10429F6802F60960FB6D6
:101D2A00F894DEBF0FBECDBFDF91CF911F910F9107
:061D3A00FF90EF900895F8
:101D4000CF93C62F8130C9F028F0823049F183301B
:101D5000D1F14BC0413069F480B762E00E94451078
:101D60006C2F80E00E9445106C2F80E00E941E11B5
:101D70003CC080E00E947D1038C0413069F480B7DB
:101D800062E00E9445106C2F81E00E9445106C2F8C
:101D900081E00E941E1129C081E00E947D1025C0B3
:101DA000413069F480B762E00E9445106C2F82E0F8
:101DB0000E9445106C2F82E00E941E1116C082E026
:101DC0000E947D1012C0413069F480B762E00E9429
:101DD00045106C2F83E00E9445106C2F83E00E9419
:0E1DE0001E1103C083E00E947D10CF91089574
:101DEE00EF92FF921F93CF93DF9300D000D0CDB729
:101DFE00DEB78FEF89838A838B838C839E012F5F5F
:101E0E003F4F790110E00E943D0E8F3FE1F3F70145
:101E1E0081937F010E941514FFEF25EA3EE0F150F9
:101E2E0020403040E1F700C00000612F80E00E94AA
:101E3E0042158AE20E9415144FEF81EE94E0415054
:101E4E0080409040E1F700C000001F5F1430D9F6CB
:101E5E00BE016F5F7F4F80E80E94480FEFEFF1EEFB
:101E6E0024E0E150F0402040E1F700C000000F9068
:101E7E000F900F900F90DF91CF911F91FF90EF90E9
:021E8E000895B5
:101E9000CF939B01482FF901849147FD80818032C7
:101EA000C9F1682F082E000C770B69507109653055
:101EB000710580F18B3249F5A0E0B0E02F5F3F4F14
:101EC0004F4F02C0A0E0B0E080E090E0CAE0F9012E
:101ED000649147FD6081062E000C770B60537109F9
:101EE0006A30710560F4C89FF001C99FF00D11249C
:101EF0002F5F3F4F4F4FCF01861B970BE8CFAB2B88
:101F000069F491958195910909C08D32D9F6A1E0C6
:101F1000B0E0D4CF2F5F3F4F4F4FBDCFCF9108954B
:101F2000E89409C097FB3EF4909580957095619573
:101F30007F4F8F4F9F4F9923A9F0F92F96E9BB2729
:101F40009395F695879577956795B795F111F8CFA5
:101F5000FAF4BB0F11F460FF1BC06F5F7F4F8F4F10
:101F60009F4F16C0882311F096E911C0772321F006
:101F70009EE8872F762F05C0662371F096E8862F9E
:101F800070E060E02AF09A95660F771F881FDAF7F5
:0A1F9000880F9695879597F908953C
:101F9A0080E00E947C1465E082E00E94EA1066E01C
:101FAA0082E00E94EA108FE19EE40197F1F700C0F7
:101FBA00000066E082E00E947D1067E082E00E94F5
:101FCA00EA108FE19EE40197F1F700C0000067E094
:101FDA0082E00E947D1082E00E94301481E00E941B
:101FEA00301486E00E94301488E20E9430148CE09B
:101FFA000E9430149FEF20E782E0915020408040F9
:08200A00E1F700C00000089599
:102012008430B1F028F4823049F0833061F00895C1
:10202200863099F0B8F08A30D1F0089562E082E00B
:102032000E947D10089563E082E00E947D10089561
:1020420064E082E00E947D10089566E083E00E94D1
:102052007D10089565E083E00E947D10089562E09E
:1020620082E00E947D1063E082E00E947D1064E0C5
:1020720082E00E947D1066E083E00E947D1065E0B0
:0820820083E00E947D10089527
:10208A00813091F028F0823039F18330C9F0089517
:10209A002AB381E090E002C0880F991F6A95E2F79F
:1020AA00809582238ABB089527B381E090E002C01D
:1020BA00880F991F6A95E2F78095822387BB089556
:1020CA0021B381E090E002C0880F991F6A95E2F778
:1020DA008095822381BB089524B381E090E002C0F9
:1020EA00880F991F6A95E2F78095822384BB089529
:1020FA00813091F028F08230D9F0833029F10895A7
:10210A002BB381E090E002C0880F991F6A95E2F72D
:10211A00809582238BBB089528B381E090E002C0AA
:10212A00880F991F6A95E2F78095822388BB0895E4
:10213A0025B381E090E002C0880F991F6A95E2F703
:10214A008095822385BB089522B381E090E002C086
:10215A00880F991F6A95E2F78095822382BB0895BA
:10216A0060E081E00E94EA1061E081E00E94EA10EA
:10217A0062E081E00E94EA1063E081E00E94EA10D6
:10218A0064E081E00E94451065E081E00E9445100C
:10219A0066E081E00E94451067E081E00E944510F8
:1021AA0041E064E081E00E94A00E41E065E081E048
:1021BA000E94A00E41E066E081E00E94A00E41E08C
:0A21CA0067E081E00E94A00E089576
:1021D400813089F028F08230C9F0833011F10895FC
:1021E4002AB381E090E002C0880F991F6A95E2F754
:1021F400822B8ABB089527B381E090E002C0880F48
:10220400991F6A95E2F7822B87BB089524B381E076
:1022140090E002C0880F991F6A95E2F7822B84BB75
:10222400089521B381E090E002C0880F991F6A9558
:08223400E2F7822B81BB089543
:10223C00813089F028F08230C9F0833011F1089593
:10224C002BB381E090E002C0880F991F6A95E2F7EA
:10225C00822B8BBB089528B381E090E002C0880FDD
:10226C00991F6A95E2F7822B88BB089525B381E00C
:10227C0090E002C0880F991F6A95E2F7822B85BB0C
:10228C00089522B381E090E002C0880F991F6A95EF
:08229C00E2F7822B82BB0895DA
:1022A4001F920F920FB60F9211242F933F934F93C7
:1022B4005F936F937F938F939F93AF93BF93EF93AA
:1022C400FF938091B4019091B50101969093B5016B
:1022D4008093B401CE9731F40E94FE151092B5019B
:1022E4001092B401FF91EF91BF91AF919F918F91A3
:1022F4007F916F915F914F913F912F910F900FBEFE
:062304000F901F901895D8
:10230A00CF93C82F84EA86BF0E94E01581B1887FE7
:10231A0091E0883009F090E0911106C091E0803197
:10232A0009F090E0992381F0C3B984E886BF0E943E
:10233A00E01581B1887F883151F0803251F08034C4
:10234A0051F0883419F409C0883349F009C081E092
:10235A0007C082E005C083E003C084E001C080E0DA
:04236A00CF91089572
:10236E000E94A11388F09F5798F0B92F9927B75163
:10237E00B0F0E1F0660F771F881F991F1AF0BA951B
:10238E00C9F714C0B13091F00E94C615B1E008959E
:10239E000C94C615672F782F8827B85F39F0B93F90
:1023AE00CCF3869577956795B395D9F73EF49095CE
:0E23BE008095709561957F4F8F4F9F4F0895CA
:1023CC00813079F028F08230A9F08330E1F024C01C
:1023DC0089B390E002C0959587956A95E2F7817074
:1023EC00089586B390E002C0959587956A95E2F7BB
:1023FC008170089583B390E002C0959587956A9596
:10240C00E2F78170089580B390E002C095958795AE
:0C241C006A95E2F78170089580E0089551
:10242800CF93DF93D62FC72F0E9485118130B1F447
:10243800C3B984E886BF0E94E01581B1887F8832DD
:1024480051F4D3B984E886BF0E94E01581B1887F32
:10245800883231F406C0803319F405C0833029F07E
:1024680005C081E003C080E001C082E0DF91CF9128
:022478000895C5
:10247A001F920F920FB60F9211242F933F934F93EF
:10248A005F936F937F938F939F93AF93BF93EF93D2
:10249A00FF9384B185B10E94FE15FF91EF91BF9120
:1024AA00AF919F918F917F916F915F914F913F91E2
:0C24BA002F910F900FBE0F901F901895EF
:1024C600813069F028F0823089F08330B1F00895C8
:1024D60083B78F7B83BF83B7877F83BF089583B717
:1024E6008F7B83BF83B7886083BF089583B780647B
:1024F60083BF83B7877F83BF089583B7806483BF15
:0825060083B7886083BF0895CC
:10250E0062E082E00E94EA1063E082E00E94EA103C
:10251E0064E082E00E94EA1066E083E00E94EA1026
:10252E0065E083E00E94EA1082E00E94091083E0D9
:10253E000E94091084E00E94091086E00E94091092
:08254E0085E00E9409100895C8
:10255600FC01DB0120E030E005C08D91981311C02D
:102566002F5F3F4F91919A32C1F7FB01E20FF31FA4
:1025760080818A3249F4233331054CF083E090E0C0
:10258600089583E090E0089583E090E0089582E066
:0425960090E0089534
:10259A00FC01DB0120E030E005C08D91981311C0E9
:1025AA002F5F3F4F91919A32C1F7FB01E20FF31F60
:1025BA0080818A3249F4233331054CF085E090E07A
:1025CA00089585E090E0089585E090E0089584E01C
:0425DA0090E00895F0
:1025DE00FC01DB0120E030E005C08D91981311C0A5
:1025EE002F5F3F4F91919A32C1F7FB01E20FF31F1C
:1025FE0080818A3249F4233331054CF087E090E034
:10260E00089587E090E0089587E090E0089586E0D1
:04261E0090E00895AB
:10262200FC01DB0120E030E005C08D91981311C060
:102632002F5F3F4F91919A32C1F7FB01E20FF31FD7
:1026420080818A3249F4233331054CF089E090E0ED
:10265200089589E090E0089589E090E0089588E087
:0426620090E0089567
:10266600FC01DB0120E030E005C08D91981311C01C
:102676002F5F3F4F91919A32C1F7FB01E20FF31F93
:1026860080818A3249F4233331054CF08BE090E0A7
:1026960008958BE090E008958BE090E008958AE03D
:0426A60090E0089523
:1026AA00FC01DB0120E030E005C08D91981311C0D8
:1026BA002F5F3F4F91919A32C1F7FB01E20FF31F4F
:1026CA0080818A3249F4233331054CF08DE090E061
:1026DA0008958DE090E008958DE090E008958CE0F3
:0426EA0090E00895DF
:1026EE00FC01DB0120E030E005C08D91981311C094
:1026FE002F5F3F4F91919A32C1F7FB01E20FF31F0B
:10270E0080818A3249F4233331054CF08FE090E01A
:10271E0008958FE090E008958FE090E008958EE0A8
:04272E0090E008959A
:1027320057FD9058440F551F59F05F3F71F0479570
:10274200880F97FB991F61F09F3F79F08795089555
:10275200121613061406551FF2CF4695F1DF08C074
:10276200161617061806991FF1CF86957105610591
:04277200089408952A
:10277600FC01DB0120E030E005C08D9198130EC00E
:102786002F5F3F4F91919A32C1F7FB01E20FF31F82
:1027960080818A3229F024E630E002C024E630E067
:1027A60081E090E02333310514F480E090E0089551
:1027B6000F931F93CF93DF938C01FC0180818A32A4
:1027C60039F0E80121960E94E41589918A32D9F7F9
:1027D6008DE00E94E415F801C801C2961192E8172F
:0E27E600F907E1F7DF91CF911F910F91089550
:1027F4000F931F93CF93DF93C82F162F042FD22F3D
:102804000E946312812F0E946A15C250C23018F4CC
:10281400802F0E944B148D2F0E949C15DF91CF9125
:062824001F910F910895C1
:10282A00CF93C82F65E082E00E941E118BB38F7090
:10283A009C2F907F892B8BBB0E94F7148BB3282F78
:10284A002F7030E1C39FC0011124822B8BBB0E94E1
:06285A00F714CF91089570
:10286000CF93C82F65E082E00E947D108BB38F70FC
:102870009C2F907F892B8BBB0E94F7148BB3282F42
:102880002F7030E1C39FC0011124822B8BBB0E94AB
:06289000F714CF9108953A
:1028960064E670E0681B7109072E000C880B990B23
:1028A6000E94920F20E030E04FE753E40E94F015BB
:1028B60020E030E048EC52E40E94EC150E94B7118B
:0428C6006CBF089546
:1028CA00CF93DF93CDB7DEB72B970FB6F894DEBF61
:1028DA000FBECDBFCE0101960E9406152B960FB6EC
:0E28EA00F894DEBF0FBECDBFDF91CF910895F1
:1028F800813049F028F0823061F0833039F0089552
:102908008FEF8ABB08958FEF87BB08958FEF81BB48
:0829180008958FEF84BB0895C0
:10292000CF93DF93D62FC42F0E94A3158D2F0E9423
:1029300075158C2F0E94AA150E9400160E94FC1586
:06294000DF91CF91089524
:1029460067E083E00E94EA102FEF80E792E02150D3
:1029560080409040E1F700C000008DE785BD83E42C
:0429660083BD089590
:10296A0062E080E00E94EA1063E080E00E94EA10E0
:10297A0064E083E00E94EA1064E083E00E941E1192
:02298A000895AE
:10298C00092E0394000C11F4882352F0BB0F40F471
:10299C00BF2B11F460FF04C06F5F7F4F8F4F9F4FB1
:0229AC0008958C
:1029AE0083B984E886BF0E94E01581B1887F8832A2
:1029BE0019F0803319F0089581E0089580E00895AC
:1029CE00CF93DF930E942415C82FD0E00E942415C8
:1029DE0094E996BF9E01382BC901DF91CF910895DE
:1029EE0067E082E00E941E118FE39CE90197F1F7E8
:0E29FE0000C0000067E082E00E947D10089596
:102A0C00CF93DF93EC018881882331F021960E94CB
:0E2A1C00151489918111FBCFDF91CF910895A0
:102A2A0080B981B1836081B942B92FEF81EE94E018
:0E2A3A00215080409040E1F700C00000089558
:102A480084EC86BF0E94E01581B1887F803511F43F
:0E2A580083B10895883511F484E986BF08958E
:102A6600CF93C92F0E94D714813039F48C2F0E943E
:0E2A7600D714813011F484E986BFCF91089502
:102A8400811105C080E8860F0E94301408958130BA
:0C2A940021F480EC860F0E94301408959D
:102AA00062E080E00E947D1063E080E00E947D1083
:0A2AB00064E082E00E947D100895AA
:102ABA00992777FD05C005900D920197E1F70895D2
:0A2ACA0001900D920197E1F70895C5
:102AD40093B79F7C93BF23B730E1839FC001112438
:062AE400822B83BF089560
:102AEA0097B19F7397B927B130E4839FC00111242E
:062AFA00822B87B908954C
:102B0000EC010E9407160E940616CE010E940816CC
:062B1000CE010E94041634
:102B160062E080E00E941E1163E080E00E947D106A
:022B2600089510
:102B280087E689B98AB188618AB98EE880BD089537
:0E2B380093B7987F93BF93B7892B83BF0895FF
:0E2B460097B1907E97B997B1892B87B9089502
:0E2B540096B1987F96B996B1892B86B90895EF
:0E2B62000E94B7116894B1110C94C715089524
:0E2B700000240A941616170618060906089582
:0E2B7E0000240A941216130614060506089584
:0E2B8C00E894BB2766277727CB0197F90895B9
:0C2B9A0097F99F6780E870E060E0089504
:0A2BA60084B125B190E0922B089550
:082BB00089B7816089BF089517
:082BB80081E00E943014089531
:082BC00006B607FEFDCF0895E3
:082BC8005D9BFECF8CB908955E
:082BD0005F9BFECF8CB108955C
:082BD8000E94F90C0C94C614D4
:082BE0000E94D30D0C94C614F1
:062BE80083E483BD0895A3
:062BEE009FEF80EC08954A
:042BF4000C9400003D
:042BF800379A08956B
:042BFC00369A089568
:042C0000339A089566
:042C040013BC089560
:042C08000E946400C2
:022C0C00089529
:022C0E00089527
:022C1000089525
:102C120052656164696E672054656D706572617496
:042C22007572650062
:102C26005072657373203020666F72206E657874FB
:012C3600009D
:102C3700392D4C616D7020696E74656E7369747996
:012C4700008C
:102C48003738392F3435362A3132332D41303D2B40
:102C58005072657373203920746F206261636B0052
:102C68005072657373203820746F206261636B0043
:102C78005072657373202B20746F20657869740017
:0F2C8800372D736572766F204F6E2F4F66660083
:0F2C9700362D4D6F746F72204F6E2F4F66660093
:0E2CA600352D4C656435204F6E2F4F6666004D
:0E2CB400342D4C656434204F6E2F4F66660041
:0E2CC200332D4C656433204F6E2F4F66660035
:0E2CD000322D4C656432204F6E2F4F66660029
:0E2CDE00312D4C656431204F6E2F4F6666001D
:0C2CEC00302D486F6D6520706167650039
:0C2CF800302D4E65787420706167650017
:0C2D0400382D54656D702052656164002C
:0C2D100047657474696E67204C656400B0
:0C2D1C004C454435204953204F4E2A00FE
:0C2D28004C454434204953204F4E2A00F3
:0C2D34004C454433204953204F4E2A00E8
:0C2D40004C454432204953204F4E2A00DD
:0C2D4C004C454431204953204F4E2A00D2
:0A2D5800696E74656E73697479008A
:022D6200560019
:012D6400FF6F
:00000001FF
