:100000000C943C000C94EE150C94EE150C94EE152B
:100010000C94EE150C94EE150C94EE150C94EE1554
:100020000C94EE150C94EE150C94EE150C944611F0
:100030000C94EE150C94EE150C94EE150C94EE1534
:100040000C9431120C94EE150C94EE150C94EE15E4
:100050000C94EE150060006480006401B4002BFA7B
:1000600001B401B68001B601B8002D4A01B801B94A
:100070008001B901BA002D4C11241FBECFE5D8E094
:10008000DEBFCDBFE4E5F0E040E017C0B591A5913B
:1000900035912591059107FD0CC095918591EF0152
:1000A000F92FE82F05900D92A217B307D9F7FE019B
:1000B00004C01D92A217B307E1F7E837F40731F740
:0C00C0000E9421090C947415F894FFCFE5
:1000CC00656E7465722061646D696E207061737306
:1000DC002A000000000000000000000000000000EA
:1000EC000000000000000000000000000000000004
:1000FC000000757365722069732061646465642AFD
:10010C0000000000000000000000000000000000E3
:10011C0000000000000000000000000000000000D3
:10012C0000000000656E7465722075736572207036
:10013C006173732A00000000000000000000000042
:10014C0000000000000000000000000000000000A3
:10015C000000000000006F70656E20736572766F92
:10016C002A00000000000000000000000000000059
:10017C000000000000000000000000000000000073
:10018C000000000000000000636C6F736520736555
:10019C0072766F2A000000000000000000000000D2
:1001AC000000000000000000000000000000000043
:1001BC0000000000000000000000637265617465BF
:1001CC00206E657720757365722A000000000000B0
:1001DC000000000000000000000000000000000013
:1001EC000000000000000000000000006C6564319D
:1001FC00206F6E2A000000000000000000000000CC
:10020C0000000000000000000000000000000000E2
:10021C0000000000000000000000000000006C6501
:10022C006431206F66662A000000000000000000A8
:10023C0000000000000000000000000000000000B2
:10024C0000000000000000000000000000000000A2
:10025C006C656432206F6E2A000000000000000004
:10026C000000000000000000000000000000000082
:10027C000000000000000000000000000000000072
:10028C0000006C656432206F66662A000000000076
:10029C000000000000000000000000000000000052
:1002AC000000000000000000000000000000000042
:1002BC00000000006C656433206F6E2A00000000A3
:1002CC000000000000000000000000000000000022
:1002DC000000000000000000000000000000000012
:1002EC000000000000006C656433206F66662A0015
:1002FC0000000000000000000000000000000000F2
:10030C0000000000000000000000000000000000E1
:10031C0000000000000000006C656434206F6E2A41
:10032C0000000000000000000000000000000000C1
:10033C0000000000000000000000000000000000B1
:10034C00000000000000000000006C656434206FA9
:10035C0066662A000000000000000000000000009B
:10036C000000000000000000000000000000000081
:10037C000000000000000000000000006C65643507
:10038C00206F6E2A0000000000000000000000003A
:10039C000000000000000000000000000000000051
:1003AC0000000000000000000000000000006C6570
:1003BC006435206F66662A00000000000000000013
:1003CC000000000000000000000000000000000021
:1003DC000000000000000000000000000000000011
:1003EC0072756E206D6F746F722A00000000000031
:1003FC0000000000000000000000000000000000F1
:10040C0000000000000000000000000000000000E0
:10041C00000073746F70206D6F746F722A0000008F
:10042C0000000000000000000000000000000000C0
:10043C0000000000000000000000000000000000B0
:10044C0000000000736572766F206973206F706511
:10045C006E65642A0000000000000000000000002F
:10046C000000000000000000000000000000000080
:10047C00000000000000736572766F2069732063C2
:10048C006C6F7365642A000000000000000000001F
:10049C000000000000000000000000000000000050
:1004AC0000000000000000006D6F746F7220727508
:1004BC006E6E696E672A00000000000000000000EC
:1004CC000000000000000000000000000000000020
:1004DC00000000000000000000006D6F746F7220BF
:1004EC0073746F702A000000000000000000000010
:1004FC0000000000000000000000000000000000F0
:0C050C00000000000000000000000000E3
:10051800656E7465722075736572200077726F6EF0
:10052800672070617373776F726400506C656173D4
:100538006520526573657420546865005379737437
:10054800656D0041646D696E20207061737300638E
:100558006F72726563740070617373776F72640091
:1005680041646D696E207573696E670055736572B5
:10057800207573696E67005072657373202F20743D
:100588006F206C6F67696E005072657373202D2041
:1005980034206B6579706164005072657373204F05
:1005A8002F4320322045786974004E6F20557365BB
:1005B8007220466F756E64004E6F205065726D69CB
:1005C8007373696F6E00506173732052657175693A
:0405D80072656400E4
:1005DC00CF93DF930E94D0158AE491E00E94FA1425
:1005EC002FEF32E587E0215030408040E1F700C02A
:1005FC0000000E94D01580E391E00E94FA14EFED08
:10060C00FEE23197F1F700C0000060E081E00E944B
:10061C0036158FED9EE20197F1F700C0000082E2E3
:10062C0091E00E94FA149FEFE9E6F8E19150E04066
:10063C00F040E1F700C000000E94310E9091B9012A
:10064C008913FEC200C32FEF39EF80E021503040F8
:10065C008040E1F700C000000E94310E813301F5AB
:10066C0062E082E00E94DA11882369F09FEFE8E5EE
:10067C00F6E09150E040F040E1F700C0000082E06D
:10068C000E94FD0F30C02FEF38E586E0215030403E
:10069C008040E1F700C0000082E00E94AB0B23C059
:1006AC000E94310E8233F9F463E082E00E94DA1189
:1006BC00882369F09FEFE8E5F6E09150E040F040C8
:1006CC00E1F700C0000083E00E94FD0F0CC02FEF8B
:1006DC0038E586E0215030408040E1F700C0000052
:1006EC0083E00E94AB0B1092B8010E94310E803354
:1006FC0009F0A9CF0E94D015EFEDFEE23197F1F78A
:10070C0000C0000084E191E00E94FA148FED9EE29B
:10071C000197F1F700C0000060E081E00E943615FF
:10072C00EFEDFEE23197F1F700C0000086E091E0BA
:10073C000E94FA14FFEF23EC39E0F15020403040D6
:10074C00E1F700C0000050C08FEF99EFE0E081505E
:10075C009040E040E1F700C000000E94310E83336E
:10076C0001F564E082E00E94DA11882369F0FFEF62
:10077C0028E536E0F15020403040E1F700C00000A1
:10078C0084E00E94FD0F30C08FEF98E5E6E08150C9
:10079C009040E040E1F700C0000084E00E94AB0B09
:1007AC0023C00E94310E8433F9F466E083E00E948A
:1007BC00DA11882369F0FFEF28E536E0F15020408C
:1007CC003040E1F700C0000086E00E94FD0F0CC035
:1007DC008FEF98E5E6E081509040E040E1F700C0F3
:1007EC00000086E00E94AB0B0E94310E803309F0B2
:1007FC00ABCF0E94D0158FED9EE20197F1F700C0B0
:10080C00000088EF90E00E94FA14EFEDFEE23197C1
:10081C00F1F700C0000060E081E00E9436158FED1A
:10082C009EE20197F1F700C0000089EE90E00E9473
:10083C00FA149FEFE3ECF9E09150E040F040E1F75F
:10084C0000C000004EC02FEF39EF80E02150304047
:10085C008040E1F700C000000E94310E853301F5A5
:10086C0065E083E00E94DA11882369F09FEFE8E5E8
:10087C00F6E09150E040F040E1F700C0000085E068
:10088C000E94FD0F2EC02FEF38E586E0215030403E
:10089C008040E1F700C0000085E00E94AB0B21C056
:1008AC000E94310E8633E9F462E080E00E94DA1196
:1008BC00882361F09FEFE8E5F6E09150E040F040CE
:1008CC00E1F700C000000E9444150BC02FEF38E583
:1008DC0086E0215030408040E1F700C000000E94CB
:1008EC007F150E94310E803309F0ADCF0E94D015D8
:1008FC00EFEDFEE23197F1F700C000008AED90E0D9
:10090C000E94FA148FED9EE20197F1F700C00000EF
:10091C0060E081E00E943615EFEDFEE23197F1F7D1
:10092C0000C0000086E591E00E94FA14FFEF23EC72
:10093C0039E0F15020403040E1F700C00000A3C086
:10094C008FEF99EFE0E081509040E040E1F700C07C
:10095C0000000E94310E8733F1F467E083E00E94BF
:10096C00DA11882361F0FFEF28E536E0F1502040E2
:10097C003040E1F700C000000E94E81584C08FEF02
:10098C0098E5E6E081509040E040E1F700C00000BF
:10099C000E94F61578C00E94310E883309F073C09E
:1009AC00FFEF23EC39E0F15020403040E1F700C07C
:1009BC0000000E94D01584E690E00E94FA148FED9E
:1009CC009EE20197F1F700C0000060E081E00E9418
:1009DC0036158AEC90E00E94FA149FEFE9E6F8E1F4
:1009EC009150E040F040E1F700C000008FE19EE440
:1009FC000197F1F700C0000081E00E9497150E945A
:100A0C00F2150E94C715EFEDFEE23197F1F700C029
:100A1C0000000E945914FFEF25EA3EE0F1502040FF
:100A2C003040E1F700C000000E94D0150E94310E4A
:100A3C008B32E1F60E94D0158FED9EE20197F1F713
:100A4C0000C0000088E790E00E94FA14EFE1FEE499
:100A5C003197F1F700C0000060E081E00E9436158C
:100A6C008FED9EE20197F1F700C000008AEB90E059
:100A7C000E94FA149FEFE5EAFEE09150E040F0404E
:100A8C00E1F700C000000E94310E803309F058CF0E
:100A9C000E94D0158FED9EE20197F1F700C0000087
:100AAC0089E890E00E94FA14EFE1FEE43197F1F747
:100ABC0000C0000060E081E00E9436158FED9EE2E0
:100ACC000197F1F700C000008EE391E00E94FA1448
:100ADC009FEFE3ECF9E09150E040F040E1F700C00B
:100AEC000000C8E8D3E19BC00E94310E893309F0A5
:100AFC0096C00E94D0158FED9EE20197F1F700C0D1
:100B0C00000082E691E00E94FA14EFE1FEE43197D6
:100B1C00F1F700C0000060E081E00E9436158FED17
:100B2C009EE20197F1F700C000008AEA91E00E9472
:100B3C00FA149FEFE4E3FCE09150E040F040E1F761
:100B4C0000C000000E94D01580E00E9497150E9402
:100B5C00F2150E94C7159C012C9FC0012D9F900D72
:100B6C003C9F900D1124992314F481509C4FBC018F
:100B7C00672F770F770B65956595072E000C880B03
:100B8C00990B0E94860F20E030E04AE754E40E9463
:100B9C00E0150E94A515CB010E9459148FED9EE221
:100BAC000197F1F700C0000086EB91E00E94FA1467
:100BBC009FEFE9E6F8E19150E040F040E1F700C02A
:100BCC0000000E94310E8B3209F0BCCF0E94D01570
:100BDC008FED9EE20197F1F700C0000088E790E0EE
:100BEC000E94FA14EFE1FEE43197F1F700C0000027
:100BFC0060E081E00E9436158FED9EE20197F1F7DF
:100C0C0000C000008AEA90E00E94FA149FEFE5EA27
:100C1C00FEE09150E040F040E1F700C000000E947F
:100C2C00310E803309F060CF0E94D0152FEF33ECDA
:100C3C0089E0215030408040E1F700C0000003C043
:0C0C4C00813409F052CDDF91CF91089562
:100C5800CF92DF92EF920F931F93CF93DF93CDB78D
:100C6800DEB7C85ED3400FB6F894DEBF0FBECDBF67
:100C780060E081E00E94DE1022E631E040E08CE096
:100C8800F901DE011196742F0E94511546E2FE010A
:100C98003D96DF01842F1D928A95E9F70F2EF4E91E
:100CA800CF2EF1E0DF2EF0E0EF2EF02D8DE0F601F3
:100CB800DE01D3967E2D0E945115FE01E05CFF4FA8
:100CC80085E2DF011D928A95E9F70F2EF6ECCF2E0B
:100CD800F1E0DF2EF0E0EF2EF02D81E1F601DE01EC
:100CE800AB59BF4F7E2D0E94511561E2E5E6F0E059
:100CF800EC0FFD1F7196DF01862F1D928A95E9F78B
:100D08000F2EF8EFCF2EF1E0DF2EF0E0EF2EF02DD2
:100D180089E0F601DE01A956BF4F7E2D0E945115CC
:100D280039E2E7E9F0E0EC0FFD1F3996DF01832F88
:100D38001D928A95E9F70F2EFAE2CF2EF2E0DF2E08
:100D4800F0E0EF2EF02D8AE0F601DE01A753BF4F49
:100D58007E2D0E94511528E2E9ECF0E0EC0FFD1F12
:100D68003A96DF01822F1D928A95E9F70F2EFCE54E
:100D7800CF2EF2E0DF2EF0E0EF2EF02D89E0F60125
:100D8800DE01A550BF4F7E2D0E945115EBEFF0E01C
:100D9800EC0FFD1F3996DF01832F1D928A95E9F725
:100DA8000F2EFEE8CF2EF2E0DF2EF0E0EF2EF02D32
:100DB8008AE0F601DE01A35DBE4F7E2D0E9451152B
:100DC800EDE2F1E0EC0FFD1F3A96DF01822F1D9254
:100DD8008A95E9F70F2EF0ECCF2EF2E0DF2EF0E047
:100DE800EF2EF02D89E0F601DE01A15ABE4F7E2DCF
:100DF8000E945115EFE5F1E0EC0FFD1F3996DF0178
:100E0800832F1D928A95E9F70F2EF2EFCF2EF2E08D
:100E1800DF2EF0E0EF2EF02D8AE0F601DE01AF566E
:100E2800BE4F7E2D0E945115E1E9F1E0EC0FFD1F48
:100E38003A96DF01822F1D928A95E9F70F2EF4E288
:100E4800CF2EF3E0DF2EF0E0EF2EF02D89E0F60153
:100E5800DE01AD53BE4F7E2D0E945115E3ECF1E04B
:100E6800EC0FFD1F3996DF01832F1D928A95E9F754
:100E78000F2EF6E5CF2EF3E0DF2EF0E0EF2EF02D6B
:100E88008AE0F601DE01AB50BE4F7E2D0E9451155F
:100E9800E5EFF1E0EC0FFD1F3A96DF01822F1D927E
:100EA8008A95E9F70F2EF8E8CF2EF3E0DF2EF0E071
:100EB800EF2EF02D89E0F601DE01A95DBD4F7E2DF4
:100EC8000E945115E7E2F2E0EC0FFD1F3996DF01B1
:100ED8001D923A95E9F70F2EFAEBCF2EF3E0DF2EAD
:100EE800F0E0EF2EF02D8AE0F601DE01A75ABD4FA3
:100EF8007E2D0E945115E9E5F2E0EC0FFD1F3A96B0
:100F0800DF011D922A95E9F70F2EFCEECF2EF3E0B4
:100F1800DF2EF0E0EF2EF02D8BE0F601DE01A55775
:100F2800BD4F7E2D0E945115EBE8F2E0EC0FFD1F3E
:100F38003B9687E2DF011D928A95E9F70F2EFEE1C5
:100F4800CF2EF4E0DF2EF0E0EF2EF02D8CE0F6014E
:100F5800DE01A354BD4F7E2D0E945115EDEBF2E04A
:100F6800EC0FFD1F3C96DF01842F1D928A95E9F74F
:100F78000F2EF0E5CF2EF4E0DF2EF0E0EF2EF02D6F
:100F880081E1F601DE01A151BD4F7E2D0E94511570
:100F9800EFEEF2E0EC0FFD1F7196DF01862F1D9238
:100FA8008A95E9F70F2EF2E8CF2EF4E0DF2EF0E075
:100FB800EF2EF02D81E1F601DE01AF5DBC4F7E2DF5
:100FC8000E945115E1E2F3E0EC0FFD1F7196DF017D
:100FD8001D926A95E9F70F2EF4EBCF2EF4E0DF2E81
:100FE800F0E0EF2EF02D8FE0F601DE01AD5ABC4F98
:100FF8007E2D0E945115E3E5F3E0EC0FFD1F3F96AF
:1010080083E2DF011D928A95E9F70F2EF6EECF2EC7
:10101800F4E0DF2EF0E0EF2EF02D8CE0F601DE019B
:10102800AB57BC4F7E2D0E945115E5E8F3E0EC0F5D
:10103800FD1F3C96DF011D924A95E9F78E01095480
:101048001C4F0E94DC15F80181938F018A32C9F781
:101058008DE00E94D815BE016F5F7F4FCE01895485
:101068009C4F0E94AF13892B41F40E94F615CE01C4
:1010780081519D4F0E94CF1311C0BE016D5C7F4FFF
:10108800CE0189549C4F0E94AF13892B39F40E94DA
:10109800E815CE018F5D9C4F0E94CF13BE016557A6
:1010A8007D4FCE0189549C4F0E949F12029741F4B4
:1010B8000E947F15CE018D5A9C4F0E94CF13AEC05F
:1010C800BE0163547D4FCE0189549C4F0E949F12EC
:1010D800029741F40E944415CE018B579C4F0E9401
:1010E800CF139CC0BE016B597F4FCE0189549C4FD2
:1010F8000E94C112049739F40E94530C9093610026
:10110800809360008BC0BE0169567F4FCE01895421
:101118009C4F0E94E312069721F482E00E94AB0BD9
:101128007DC0BE0167537F4FCE0189549C4F0E94FA
:10113800E312069721F482E00E94FD0F6FC0BE0102
:1011480065507F4FCE0189549C4F0E940513089724
:1011580021F483E00E94AB0B61C0BE01635D7E4F4A
:10116800CE0189549C4F0E940513089721F483E00F
:101178000E94FD0F53C0BE01615A7E4FCE018954B3
:101188009C4F0E9427130A9721F484E00E94AB0B1E
:1011980045C0BE016F567E4FCE0189549C4F0E94B8
:1011A80027130A9721F484E00E94FD0F37C0BE017F
:1011B8006D537E4FCE0189549C4F0E9449130C9762
:1011C80021F486E00E94AB0B29C0BE016B507E4F14
:1011D800CE0189549C4F0E9449130C9721F486E054
:1011E8000E94FD0F1BC0BE01695D7D4FCE01895471
:1011F8009C4F0E946B130E9721F485E00E94AB0B65
:101208000DC0BE01675A7D4FCE0189549C4F0E9484
:101218006B130E9719F485E00E94FD0FC851DC4F3F
:101228000FB6F894DEBF0FBECDBFDF91CF911F91EF
:0A1238000F91EF90DF90CF90089522
:10124200CF93DF93CDB7DEB7C45CD1090FB6F89464
:10125200DEBF0FBECDBF62E083E00E94391063E0C3
:1012620083E00E94DE100E94881546E050E063E0B1
:1012720070E08FEF90E00E9409150E94C10F0E945A
:10128200A9100E947B1247E061E081E00E94841471
:1012920047E061E080E00E94841425E042E360E0E0
:1012A20080E00E94EE130E94CC1581E090E00E9443
:1012B200A9140E94971469E171E082EA0E9408125F
:1012C20083E099E00E9427152FEF89EF90E02150EB
:1012D20080409040E1F700C000006CE171E082EADA
:1012E2000E94081280E090E00E9427152FEF80E70D
:1012F20092E0215080409040E1F700C0000028E1D8
:1013020035E040E08CE0F901DE011196742F0E9475
:10131200511524E235E040E08FE0F901DE011D962F
:10132200742F0E94511523E335E040E081E1F90179
:10133200DE015C96742F0E94511524E435E040E0F2
:1013420087E0F901DE019D96742F0E9451152BE46E
:1013520035E040E08CE0F901DE01D496742F0E9462
:10136200511527E535E040E088E0F901DE01A05C97
:10137200BF4F742F0E9451152FE535E040E089E000
:10138200F901DE01A85BBF4F742F0E94511528E6B8
:1013920035E040E08CE0F901DE01AF5ABF4F742F17
:1013A2000E94511524E735E040E08BE0F901DE01AF
:1013B200A35ABF4F742F0E9451152FE735E040E02A
:1013C20081E1F901DE01A859BF4F742F0E94511526
:1013D20020E935E040E081E1F901DE01A758BF4F85
:1013E200742F0E94511521EA35E040E081E1F901B4
:1013F200DE01A657BF4F742F0E94511522EB35E034
:1014020040E08EE0F901DE01A556BF4F742F0E9425
:10141200511520EC35E040E08EE0F901DE01A755E0
:10142200BF4F742F0E9451152EEC35E040E08EE044
:10143200F901DE01A954BF4F742F0E94511503E038
:1014420010E00E945C0D8330994009F02BC10E948C
:10145200D015CE01C4960E94FA148FE19EE4019742
:10146200F1F700C0000062E081E00E943615CE0173
:10147200805C9F4F0E94FA149FEF29E688E1915009
:1014820020408040E1F700C00000A12CB12C812C4B
:10149200912C62E083E00E94DA11882349F00E94D5
:1014A200D015CE018F5A9F4F0E94FA140E942C062B
:1014B2000E94D0158FED9EE20197F1F700C0000067
:1014C200CE0188599F4F0E94FA148FE19EE4019742
:1014D200F1F700C0000060E081E00E943615CE0105
:1014E20087589F4F0E94FA149FEF29E688E1915096
:1014F20020408040E1F700C000000E94D0158FED2F
:101502009EE20197F1F700C000000E94310EE82E22
:10151200F12C9FE2E916F10409F4FDC02DE2E21676
:10152200F10409F0B6CF6CE171E082EA0E94081280
:101532006CE171E083EA0E9408128FE19EE4019758
:10154200F1F700C000000E94DB146C01892B09F046
:10155200F9C097C00E94D0158FE39CE90197F1F77B
:1015620000C00000CE0101960E94FA148FE19EE4B1
:101572000197F1F700C0000060E081E00E9436159B
:10158200CE01885B9F4F0E94FA149FEF29E688E103
:10159200915020408040E1F700C000000E94D01529
:1015A2000E94EB0E8C010E94D01592E0A916B104A4
:1015B20024F00C151D0521F09BC00C151D0581F5AD
:1015C2002DE2E216F10439F5CE01835A9F4F0E94B3
:1015D200FA148FEF93EC29E0815090402040E1F71C
:1015E20000C0000018C00E94D0158FED9EE2019746
:1015F200F1F700C00000CE0186579F4F0E94FA14F7
:101602009FEF26E181E1915020408040E1F700C048
:1016120000000E94EE020E94310E813421F739CF80
:10162200012B89F0CE010D960E94FA149FEF21EE54
:1016320084E0915020408040E1F700C000009FEF1D
:10164200A91AB90A26CFCE0187559F4F0E94FA14D4
:101652008FE19EE40197F1F700C0000060E081E0B5
:101662000E943615CE0189549F4F0E94FA149FEFB3
:1016720026E181E1915020408040E1F700C0000066
:1016820008CFCE0185569F4F0E94FA149FEF29E69C
:1016920088E1915020408040E1F700C000000E94A4
:1016A200D015F7CE0E94D015CE010D960E94FA14E5
:1016B2009FEF23EC89E0915020408040E1F700C089
:1016C20000000150110909F0BCCE63E083E00E94E2
:1016D20012110E94D015CE014C960E94FA1464E0B9
:1016E20081E00E943615CE018D960E94FA14FFCF3A
:1016F20063E083E00E9412110E94D015CE014C9645
:101702000E94FA1464E081E00E943615CE018D96A3
:101712000E94FA14FFCF6CE171E082EA0E94081283
:101722006CE171E083EA0E9408128FE19EE4019766
:10173200F1F700C000000E94DB146C01892B09F450
:10174200A0CF08CF92E0A916B1040CF47CCF082DEB
:04175200192D2FCF4F
:10175600843009F43FC028F4823061F0833011F1FF
:101766000895863009F44EC008F464C08A3009F43E
:1017760079C0089562E082E00E9412110E94D0159D
:101786008EE991E00E94FA148EE991E00E94CF134F
:101796002FEF89E698E1215080409040E1F700C0A4
:1017A6000000089563E082E00E9412110E94D015A5
:1017B60082E991E00E94FA1482E991E00E94CF1337
:1017C6002FEF89E698E1215080409040E1F700C074
:1017D6000000089564E082E00E9412110E94D01574
:1017E60086E891E00E94FA1486E891E00E94CF1301
:1017F6002FEF89E698E1215080409040E1F700C044
:101806000000089566E083E00E9412110E94D01540
:101816008AE791E00E94FA148AE791E00E94CF13CA
:101826002FEF89E698E1215080409040E1F700C013
:101836000000089565E083E00E9412110E94D01511
:101846008EE691E00E94FA148EE691E00E94CF1394
:101856002FEF89E698E1215080409040E1F700C0E3
:101866000000089562E082E00E94121163E082E0C7
:101876000E94121164E082E00E94121166E083E089
:101886000E94121165E083E00E9412112FEF89E693
:1018960098E1215080409040E1F700C00000089593
:1018A600CF92DF92EF92FF920F931F93CF93DF9326
:1018B600CDB7DEB7C85CD1090FB6F894DEBF0FBE50
:1018C600CDBF2EEF30E040E08FE0F901DE0111964A
:1018D600742F0E945115FE01709683E2DF011D925E
:1018E6008A95E9F720E331E040E081E1F901DE0184
:1018F600D396742F0E945115FE01EC5BFF4F81E2D7
:10190600DF011D928A95E9F7CE01C3960E94CF1397
:101916007E01B5E6EB0EF11CC701C296F7011192E6
:10192600E817F907E1F7670100E010E00E94DC150F
:10193600F60181936F018A3239F48DE00E94D81541
:101946001016110624F013C00F5F1F4FEFCFFE01D4
:10195600E956FF4F85E690E08C0F9D1F080F191F73
:10196600D7018D917D018193A017B107C9F7BE01FB
:1019760069567F4F80E80E943C0F909363008093E6
:1019860062006CE171E082EA0E94081280916200B6
:10199600909163000E942715EFE3FCE93197F1F778
:1019A60000C00000CE0101960E94CF138091620014
:1019B60090916300C853DF4F0FB6F894DEBF0FBE99
:1019C600CDBFDF91CF911F910F91FF90EF90DF90E8
:0419D600CF90089511
:1019DA0010C00E94B31558F00E94AC1540F029F4CB
:1019EA005F3F29F00C94C11551110C94BB150C944E
:1019FA00EB150E948D1368F39923B1F3552391F3E4
:101A0A00951B550BBB27AA2762177307840738F063
:101A1A009F5F5F4F220F331F441FAA1FA9F335D0C0
:101A2A000E2E3AF0E0E832D091505040E695001C74
:101A3A00CAF72BD0FE2F29D0660F771F881FBB1F2E
:101A4A00261737074807AB07B0E809F0BB0B802D0C
:101A5A00BF01FF2793585F4F3AF09E3F510578F038
:101A6A000C94C1150C94BB155F3FE4F3983ED4F374
:101A7A00869577956795B795F7959F5FC9F7880F0C
:101A8A00911D9695879597F90895E1E0660F771F5E
:101A9A00881FBB1F621773078407BA0720F0621BEF
:0E1AAA00730B840BBA0BEE1F88F7E0950895BE
:101AB800CF92DF92EF92FF920F931F93CF93DF9312
:101AC800CDB7DEB7C659D1090FB6F894DEBF0FBE41
:101AD800CDBF2CEC30E040E082E1F901DE01119647
:101AE800742F0E945115FE01739680E2DF011D924A
:101AF8008A95E9F7CE0101960E94CF137E01B3E3E0
:101B0800EB0EF11CC701C296F7011192E817F9070D
:101B1800E1F7670100E010E00E94DC15F60181930F
:101B28006F018A3239F48DE00E94D815101611061B
:101B380024F013C00F5F1F4FEFCFFE01EB59FF4F8B
:101B480083E390E08C0F9D1F080F191FD7018D911B
:101B58007D018193A017B107C9F7BE016B597F4F6B
:101B680080E80E943C0FCA56DF4F0FB6F894DEBFDC
:101B78000FBECDBFDF91CF911F910F91FF90EF90D6
:061B8800DF90CF900895EC
:101B8E000FC00E94AC1538F00E94B31520F09523BB
:101B9E0011F00C94C1150C94EB1511240C94BB157B
:101BAE000E948D1370F3959FC1F3950F50E0551F52
:101BBE00629FF001729FBB27F00DB11D639FAA2794
:101BCE00F00DB11DAA1F649F6627B00DA11D661FE3
:101BDE00829F2227B00DA11D621F739FB00DA11D04
:101BEE00621F839FA00D611D221F749F3327A00DBE
:101BFE00611D231F849F600D211D822F762F6A2F5A
:101C0E0011249F5750409AF0F1F088234AF0EE0FBE
:101C1E00FF1FBB1F661F771F881F91505040A9F7EB
:101C2E009E3F510580F00C94C1150C94BB155F3F7F
:101C3E00E4F3983ED4F3869577956795B795F79527
:101C4E00E7959F5FC1F7FE2B880F911D969587959F
:041C5E0097F9089555
:101C6200EF92FF920F931F93CF93DF93CDB7DEB71F
:101C720060970FB6F894DEBF0FBECDBF80E1EAE9F0
:101C8200F0E0DE01119601900D928A95E1F7E12CC8
:101C9200F12C0FEF60E081E00E94121161E081E01F
:101CA2000E94121162E081E00E94121163E081E061
:101CB2000E9412118FE19BEC0197F1F700C0000026
:101CC2006E2D81E00E94711010E064E0610F81E0EE
:101CD2000E94DA1181110FC0F701EE0FFF1FEE0F04
:101CE200FF1F81E090E08C0F9D1FE80FF91FE10FAD
:101CF200F11D008103C01F5F143039F79FEFE91A0D
:101D0200F90A84E0E816F10429F6802F60960FB6EE
:101D1200F894DEBF0FBECDBFDF91CF911F910F911F
:061D2200FF90EF90089510
:101D2800CF93C62F8130C9F028F0823049F1833033
:101D3800D1F14BC0413069F480B762E00E9439109C
:101D48006C2F80E00E9439106C2F80E00E941211E5
:101D58003CC080E00E94711038C0413069F480B7FF
:101D680062E00E9439106C2F81E00E9439106C2FBC
:101D780081E00E94121129C081E00E94711025C0E3
:101D8800413069F480B762E00E9439106C2F82E01C
:101D98000E9439106C2F82E00E94121116C082E056
:101DA8000E94711012C0413069F480B762E00E944D
:101DB80039106C2F83E00E9439106C2F83E00E9449
:0E1DC800121103C083E00E947110CF910895A4
:101DD600EF92FF921F93CF93DF9300D000D0CDB741
:101DE600DEB78FEF89838A838B838C839E012F5F77
:101DF6003F4F790110E00E94310E8F3FE1F3F7016A
:101E060081937F010E940914FFEF25EA3EE0F1501D
:101E160020403040E1F700C00000612F80E00E94C2
:101E260036158AE20E9409144FEF81EE94E0415084
:101E360080409040E1F700C000001F5F1430D9F6E3
:101E4600BE016F5F7F4F80E80E943C0FEFEFF1EE1F
:101E560024E0E150F0402040E1F700C000000F9080
:101E66000F900F900F90DF91CF911F91FF90EF9001
:021E76000895CD
:101E7800CF939B01482FF901849147FD80818032DF
:101E8800C9F1682F082E000C770B6950710965306D
:101E9800710580F18B3249F5A0E0B0E02F5F3F4F2C
:101EA8004F4F02C0A0E0B0E080E090E0CAE0F90146
:101EB800649147FD6081062E000C770B6053710911
:101EC8006A30710560F4C89FF001C99FF00D1124B4
:101ED8002F5F3F4F4F4FCF01861B970BE8CFAB2BA0
:101EE80069F491958195910909C08D32D9F6A1E0DF
:101EF800B0E0D4CF2F5F3F4F4F4FBDCFCF91089564
:101F0800E89409C097FB3EF490958095709561958B
:101F18007F4F8F4F9F4F9923A9F0F92F96E9BB2741
:101F28009395F695879577956795B795F111F8CFBD
:101F3800FAF4BB0F11F460FF1BC06F5F7F4F8F4F28
:101F48009F4F16C0882311F096E911C0772321F01E
:101F58009EE8872F762F05C0662371F096E8862FB6
:101F680070E060E02AF09A95660F771F881FDAF70D
:0A1F7800880F9695879597F9089554
:101F820080E00E94701465E082E00E94DE1066E04C
:101F920082E00E94DE108FE19EE40197F1F700C01B
:101FA200000066E082E00E94711067E082E00E9419
:101FB200DE108FE19EE40197F1F700C0000067E0B8
:101FC20082E00E94711082E00E94241481E00E944B
:101FD200241486E00E94241488E20E9424148CE0D7
:101FE2000E9424149FEF20E782E09150204080401D
:081FF200E1F700C000000895B2
:101FFA008430B1F028F4823049F0833061F00895DA
:10200A00863099F0B8F08A30D1F0089562E082E023
:10201A000E947110089563E082E00E947110089591
:10202A0064E082E00E947110089566E083E00E94F5
:10203A007110089565E083E00E947110089562E0CE
:10204A0082E00E94711063E082E00E94711064E0F5
:10205A0082E00E94711066E083E00E94711065E0E0
:08206A0083E00E94711008954B
:10207200813091F028F0823039F18330C9F008952F
:102082002AB381E090E002C0880F991F6A95E2F7B7
:10209200809582238ABB089527B381E090E002C035
:1020A200880F991F6A95E2F78095822387BB08956E
:1020B20021B381E090E002C0880F991F6A95E2F790
:1020C2008095822381BB089524B381E090E002C011
:1020D200880F991F6A95E2F78095822384BB089541
:1020E200813091F028F08230D9F0833029F10895BF
:1020F2002BB381E090E002C0880F991F6A95E2F746
:10210200809582238BBB089528B381E090E002C0C2
:10211200880F991F6A95E2F78095822388BB0895FC
:1021220025B381E090E002C0880F991F6A95E2F71B
:102132008095822385BB089522B381E090E002C09E
:10214200880F991F6A95E2F78095822382BB0895D2
:1021520060E081E00E94DE1061E081E00E94DE101A
:1021620062E081E00E94DE1063E081E00E94DE1006
:1021720064E081E00E94391065E081E00E9439103C
:1021820066E081E00E94391067E081E00E94391028
:1021920041E064E081E00E94940E41E065E081E06C
:1021A2000E94940E41E066E081E00E94940E41E0BC
:0A21B20067E081E00E94940E08959A
:1021BC00813089F028F08230C9F0833011F1089514
:1021CC002AB381E090E002C0880F991F6A95E2F76C
:1021DC00822B8ABB089527B381E090E002C0880F60
:1021EC00991F6A95E2F7822B87BB089524B381E08F
:1021FC0090E002C0880F991F6A95E2F7822B84BB8E
:10220C00089521B381E090E002C0880F991F6A9570
:08221C00E2F7822B81BB08955B
:10222400813089F028F08230C9F0833011F10895AB
:102234002BB381E090E002C0880F991F6A95E2F702
:10224400822B8BBB089528B381E090E002C0880FF5
:10225400991F6A95E2F7822B88BB089525B381E024
:1022640090E002C0880F991F6A95E2F7822B85BB24
:10227400089522B381E090E002C0880F991F6A9507
:08228400E2F7822B82BB0895F2
:10228C001F920F920FB60F9211242F933F934F93DF
:10229C005F936F937F938F939F93AF93BF93EF93C2
:1022AC00FF938091B4019091B50101969093B50183
:1022BC008093B401CE9731F40E94F2151092B501BF
:1022CC001092B401FF91EF91BF91AF919F918F91BB
:1022DC007F916F915F914F913F912F910F900FBE16
:0622EC000F901F901895F1
:1022F200CF93C82F84EA86BF0E94D41581B1887F0C
:1023020091E0883009F090E0911106C091E08031AF
:1023120009F090E0992381F0C3B984E886BF0E9456
:10232200D41581B1887F883151F0803251F08034E8
:1023320051F0883419F409C0883349F009C081E0AA
:1023420007C082E005C083E003C084E001C080E0F2
:04235200CF9108958A
:102356000E94951388F09F5798F0B92F9927B75187
:10236600B0F0E1F0660F771F881F991F1AF0BA9533
:10237600C9F714C0B13091F00E94BA15B1E00895C2
:102386000C94BA15672F782F8827B85F39F0B93FB4
:10239600CCF3869577956795B395D9F73EF49095E6
:0E23A6008095709561957F4F8F4F9F4F0895E2
:1023B400813079F028F08230A9F08330E1F024C034
:1023C40089B390E002C0959587956A95E2F781708C
:1023D400089586B390E002C0959587956A95E2F7D3
:1023E4008170089583B390E002C0959587956A95AE
:1023F400E2F78170089580B390E002C095958795C7
:0C2404006A95E2F78170089580E0089569
:10241000CF93DF93D62FC72F0E9479118130B1F46B
:10242000C3B984E886BF0E94D41581B1887F883201
:1024300051F4D3B984E886BF0E94D41581B1887F56
:10244000883231F406C0803319F405C0833029F096
:1024500005C081E003C080E001C082E0DF91CF9140
:022460000895DD
:102462001F920F920FB60F9211242F933F934F9307
:102472005F936F937F938F939F93AF93BF93EF93EA
:10248200FF9384B185B10E94F215FF91EF91BF9144
:10249200AF919F918F917F916F915F914F913F91FA
:0C24A2002F910F900FBE0F901F90189507
:1024AE00813069F028F0823089F08330B1F00895E0
:1024BE0083B78F7B83BF83B7877F83BF089583B72F
:1024CE008F7B83BF83B7886083BF089583B7806493
:1024DE0083BF83B7877F83BF089583B7806483BF2D
:0824EE0083B7886083BF0895E5
:1024F60062E082E00E94DE1063E082E00E94DE106D
:1025060064E082E00E94DE1066E083E00E94DE1056
:1025160065E083E00E94DE1082E00E94FD0F83E00A
:102526000E94FD0F84E00E94FD0F86E00E94FD0FD1
:0825360085E00E94FD0F0895ED
:10253E00FC01DB0120E030E005C08D91981311C045
:10254E002F5F3F4F91919A32C1F7FB01E20FF31FBC
:10255E0080818A3249F4233331054CF083E090E0D8
:10256E00089583E090E0089583E090E0089582E07E
:04257E0090E008954C
:10258200FC01DB0120E030E005C08D91981311C001
:102592002F5F3F4F91919A32C1F7FB01E20FF31F78
:1025A20080818A3249F4233331054CF085E090E092
:1025B200089585E090E0089585E090E0089584E034
:0425C20090E0089508
:1025C600FC01DB0120E030E005C08D91981311C0BD
:1025D6002F5F3F4F91919A32C1F7FB01E20FF31F34
:1025E60080818A3249F4233331054CF087E090E04C
:1025F600089587E090E0089587E090E0089586E0EA
:0426060090E00895C3
:10260A00FC01DB0120E030E005C08D91981311C078
:10261A002F5F3F4F91919A32C1F7FB01E20FF31FEF
:10262A0080818A3249F4233331054CF089E090E005
:10263A00089589E090E0089589E090E0089588E09F
:04264A0090E008957F
:10264E00FC01DB0120E030E005C08D91981311C034
:10265E002F5F3F4F91919A32C1F7FB01E20FF31FAB
:10266E0080818A3249F4233331054CF08BE090E0BF
:10267E0008958BE090E008958BE090E008958AE055
:04268E0090E008953B
:10269200FC01DB0120E030E005C08D91981311C0F0
:1026A2002F5F3F4F91919A32C1F7FB01E20FF31F67
:1026B20080818A3249F4233331054CF08DE090E079
:1026C20008958DE090E008958DE090E008958CE00B
:0426D20090E00895F7
:1026D600FC01DB0120E030E005C08D91981311C0AC
:1026E6002F5F3F4F91919A32C1F7FB01E20FF31F23
:1026F60080818A3249F4233331054CF08FE090E033
:1027060008958FE090E008958FE090E008958EE0C0
:0427160090E00895B2
:10271A0057FD9058440F551F59F05F3F71F0479588
:10272A00880F97FB991F61F09F3F79F0879508956D
:10273A00121613061406551FF2CF4695F1DF08C08C
:10274A00161617061806991FF1CF869571056105A9
:04275A000894089542
:10275E00FC01DB0120E030E005C08D9198130EC026
:10276E002F5F3F4F91919A32C1F7FB01E20FF31F9A
:10277E0080818A3229F024E630E002C024E630E07F
:10278E0081E090E02333310514F480E090E0089569
:10279E000F931F93CF93DF938C01FC0180818A32BC
:1027AE0039F0E80121960E94D81589918A32D9F71D
:1027BE008DE00E94D815F801C801C2961192E81753
:0E27CE00F907E1F7DF91CF911F910F91089568
:1027DC000F931F93CF93DF93C82F162F042FD22F55
:1027EC000E945712812F0E945E15C250C23018F4FD
:1027FC00802F0E943F148D2F0E949015DF91CF9156
:06280C001F910F910895D9
:10281200CF93C82F65E082E00E9412118BB38F70B4
:102822009C2F907F892B8BBB0E94EB148BB3282F9C
:102832002F7030E1C39FC0011124822B8BBB0E94F9
:06284200EB14CF91089594
:10284800CF93C82F65E082E00E9471108BB38F7020
:102858009C2F907F892B8BBB0E94EB148BB3282F66
:102868002F7030E1C39FC0011124822B8BBB0E94C3
:06287800EB14CF9108955E
:10287E0064E670E0681B7109072E000C880B990B3B
:10288E000E94860F20E030E04FE753E40E94E415EB
:10289E0020E030E048EC52E40E94E0150E94AB11BB
:0428AE006CBF08955E
:1028B200CF93DF93CDB7DEB72B970FB6F894DEBF79
:1028C2000FBECDBFCE0101960E94FA142B960FB611
:0E28D200F894DEBF0FBECDBFDF91CF91089509
:1028E000813049F028F0823061F0833039F008956A
:1028F0008FEF8ABB08958FEF87BB08958FEF81BB61
:0829000008958FEF84BB0895D8
:10290800CF93DF93D62FC42F0E9497158D2F0E9447
:1029180069158C2F0E949E150E94F4150E94F015CF
:06292800DF91CF9108953C
:10292E0067E083E00E94DE102FEF80E792E02150F7
:10293E0080409040E1F700C000008DE785BD83E444
:04294E0083BD0895A8
:1029520062E080E00E94DE1063E080E00E94DE1010
:1029620064E083E00E94DE1064E083E00E941211C2
:022972000895C6
:10297400092E0394000C11F4882352F0BB0F40F489
:10298400BF2B11F460FF04C06F5F7F4F8F4F9F4FC9
:022994000895A4
:1029960083B984E886BF0E94D41581B1887F8832C6
:1029A60019F0803319F0089581E0089580E00895C4
:1029B600CF93DF930E941815C82FD0E00E941815F8
:1029C60094E996BF9E01382BC901DF91CF910895F6
:1029D60067E082E00E9412118FE39CE90197F1F70C
:0E29E60000C0000067E082E00E9471100895BA
:1029F400CF93DF93EC018881882331F021960E94E4
:0E2A0400091489918111FBCFDF91CF910895C4
:102A120080B981B1836081B942B92FEF81EE94E030
:0E2A2200215080409040E1F700C00000089570
:102A300084EC86BF0E94D41581B1887F803511F463
:0E2A400083B10895883511F484E986BF0895A6
:102A4E00CF93C92F0E94CB14813039F48C2F0E9462
:0E2A5E00CB14813011F484E986BFCF91089526
:102A6C00811105C080E8860F0E94241408958130DE
:0C2A7C0021F480EC860F0E9424140895C1
:102A880062E080E00E94711063E080E00E947110B3
:0A2A980064E082E00E9471100895CE
:102AA200992777FD05C005900D920197E1F70895EA
:0A2AB20001900D920197E1F70895DD
:102ABC0093B79F7C93BF23B730E1839FC001112450
:062ACC00822B83BF089578
:102AD20097B19F7397B927B130E4839FC001112446
:062AE200822B87B9089564
:102AE800EC010E94FB150E94FA15CE010E94FC150C
:062AF800CE010E94F8155A
:102AFE0062E080E00E94121163E080E00E9471109B
:022B0E00089528
:102B100087E689B98AB188618AB98EE880BD08954F
:0E2B200093B7987F93BF93B7892B83BF089517
:0E2B2E0097B1907E97B997B1892B87B908951A
:0E2B3C0096B1987F96B996B1892B86B9089507
:0E2B4A000E94AB116894B1110C94BB15089554
:0E2B580000240A94161617061806090608959A
:0E2B660000240A94121613061406050608959C
:0E2B7400E894BB2766277727CB0197F90895D1
:0C2B820097F99F6780E870E060E008951C
:0A2B8E0084B125B190E0922B089568
:082B980089B7816089BF08952F
:082BA00081E00E942414089555
:082BA80006B607FEFDCF0895FB
:082BB0005D9BFECF8CB9089576
:082BB8005F9BFECF8CB1089574
:082BC0000E94ED0C0C94BA1404
:082BC8000E94C70D0C94BA1421
:062BD00083E483BD0895BB
:062BD6009FEF80EC089562
:042BDC000C94000055
:042BE000379A089583
:042BE400369A089580
:042BE800339A08957F
:042BEC0013BC089579
:042BF0000E946400DB
:022BF400089542
:022BF600089540
:022BF80008953E
:102BFA0052656164696E672054656D7065726174AF
:042C0A00757265007A
:102C0E005072657373203020666F72206E65787413
:012C1E0000B5
:102C1F00392D4C616D7020696E74656E73697479AE
:012C2F0000A4
:102C30003738392F3435362A3132332D41303D2B58
:102C40005072657373203920746F206261636B006A
:102C50005072657373203820746F206261636B005B
:102C60005072657373202B20746F2065786974002F
:0F2C7000372D736572766F204F6E2F4F6666009B
:0F2C7F00362D4D6F746F72204F6E2F4F666600AB
:0E2C8E00352D4C656435204F6E2F4F66660065
:0E2C9C00342D4C656434204F6E2F4F66660059
:0E2CAA00332D4C656433204F6E2F4F6666004D
:0E2CB800322D4C656432204F6E2F4F66660041
:0E2CC600312D4C656431204F6E2F4F66660035
:0C2CD400302D486F6D6520706167650051
:0C2CE000302D4E6578742070616765002F
:0C2CEC00382D54656D7020526561640045
:0C2CF80047657474696E67204C656400C9
:0C2D04004C454435204953204F4E2A0016
:0C2D10004C454434204953204F4E2A000B
:0C2D1C004C454433204953204F4E2A0000
:0C2D28004C454432204953204F4E2A00F5
:0C2D34004C454431204953204F4E2A00EA
:0A2D4000696E74656E7369747900A2
:022D4A00560031
:012D4C00FF87
:00000001FF
